:100000000C94EE050C940B060C940B060C940B064A
:100010000C940B060C940B060C940B060C940B061C
:100020000C940B060C940B060C94DA1B0C94961B88
:100030000C942C2E0C940B060C940B060C940B06B3
:100040000C940B060C940B060C940B060C940B06EC
:100050000C940B060C94D6170C940B060C940B0600
:100060000C940B060C940B060C940B060C940B06CC
:100070000C940B060C940B060C940B060C940B06BC
:100080000C940B060C940B060C940B060C940B06AC
:100090000C940B060C940B060C940B060C940B069C
:1000A0000C940B060C940B060C940B06000000003D
:1000B0000000000000000000000000000000000040
:1000C0000000000000000000000000000000000030
:1000D0000000000000000000000000000000000020
:1000E0000000000000000000000000000000000010
:1000F0000000000000000000000000000000000000
:1001000000000000000000000000000000000000EF
:1001100000000000000000000000000000000000DF
:1001200000000000000000000000000000000000CF
:1001300000000000000000000000000000000000BF
:10014000000000CCFF0000000000000000000000E4
:100150000000000086FFD586FFD5000000000000EB
:1001600000000086FFD586FFD500000000000000DB
:10017000000086FFD586FFD50000000000000000CB
:100180000000000000000000000000CCFF000000A4
:1001900000000000000086FFD586FFD500000000AB
:1001A000000000000086FFD586FFD500000000009B
:1001B0000000000086FFD586FFD50000000000008B
:1001C000000000000000000000000000000000002F
:1001D000000000000000000000000086FFD586FF40
:1001E000D586FFD586FFD50000000AE1FF0AE1FFB2
:1001F0000AE1FF0AE1FF000000000000000000002B
:1002000000000000000000000AE1FF000000000004
:1002100000000000000000000000000000000000DE
:100220000000000000000000000AE1FF00000000E4
:1002300000000000000AE1FF0AE1FF0AE1FF000000
:1002400000000000000000000000000000000000AE
:100250000AE1FF00000000000000000000000000B4
:100260000000CDFFAE00000000000086FFD586FF35
:10027000D586FFD586FFD50000000EDEF20EDEF239
:100280000EDEF20EDEF200000000000000000000B2
:10029000000000000000000000000000000000005E
:1002A00000000000000000000000CDFFAE000000D4
:1002B00000000000000086FFD50EDEF286FFD500AC
:1002C00000000000000EDEF20EDEF20EDEF2000094
:1002D000000000000000000000000000000000001E
:1002E000000000000000000000000000000000000E
:1002F00000000000000000000000000000000000FE
:1003000000000000000000000000000000000000ED
:1003100000000000000000000000000000000000DD
:1003200000000000000000000000000000000000CD
:1003300000000000F3DEEA00000000000000000002
:1003400000000000000000000055CB9EF3DEEAF341
:10035000DEEA0000000000000000000000000000D5
:10036000000000000000000000000000000000008D
:10037000000000000000000000000000000000007D
:10038000000000000000000000000000000000006D
:10039000000000000000000000000000000000005D
:1003A000000000000000000000000000000000004D
:1003B000000000000000000000000000000000003D
:1003C000000000000000000000000000000000002D
:1003D0000000000F61EC0F61EC0F61EC0F61EC0F9E
:1003E00061EC0F61EC0F61EC0F61EC0F61EC0F61E0
:1003F000EC0F61EC0F61EC0F61EC0F61EC0F61EC45
:10040000FA9FFFFA9FFF00000000000000000000BC
:1004100000000000000000000000000000000000DC
:1004200000000000000000000000000000000000CC
:1004300000000000000000000000000000000000BC
:1004400000000000000000000000000000000000AC
:10045000000000000000000000000000000000009C
:10046000000000FA9FFFFA9FFFFA9FFFFA9FFFFA32
:100470009FFFFA9FFFFA9FFFFA9FFFFA9FFFFA9FE5
:10048000FFFA9FFFFA9FFFFA9FFFFA9FFFFA9FFF75
:100490001B7EFF1B7EFF0000000000000001010129
:1004A0000101010101010202020202020202020331
:1004B0000303030303030304040404040404050501
:1004C00005050506060606060707070707080808C4
:1004D00008090909090A0A0A0B0B0B0C0C0C0D0D73
:1004E0000D0E0E0E0F0F0F1010111111121213130B
:1004F0001414151516161717181819191A1A1B1B84
:100500001C1D1D1E1E1F20202122222324242526DF
:1005100026272829292A2B2C2D2D2E2F3031323217
:10052000333435363738393A3B3C3D3E3F40414223
:10053000434445464748494A4C4D4E4F5051535409
:10054000555658595A5B5D5E5F61626465666869BD
:100550006B6C6D6F7072737577787A7B7D7E80823D
:10056000838587888A8C8E8F91939596989A9C9E86
:10057000A0A2A3A5A7A9ABADAFB1B3B5B7BABCBE96
:10058000C0C2C4C6C9CBCDCFD1D4D6D8DBDDDFE263
:10059000E4E7E9EBEEF0F3F5F8FAFDFF35002B00A8
:1005A0002961E100E00000001E00140004001D00AD
:1005B000010028001F001A0016001B004C00025109
:1005C0002000080007000600E2002A68210015004C
:1005D000090019002C000353220017000A0005002F
:1005E000000050000453000F0000045400004F00AE
:1005F0000253000F00002E000000510023001C00D9
:100600000B00110000005200240018000D00100023
:100610002C00010025000C000E003600E6002878B2
:10062000260012000F0037004C0001542700130071
:1006300033003800E4002A002D00310034002E720F
:1006400003540000010001002900E1000100000046
:100650003A001E02200222020100C65C3B001F027B
:1006600021022302010001003C0026022F022F007C
:10067000010001003D0027023002300001000100AE
:100680003E0031023500350200002A5D0100010004
:10069000000001000000C35C010001000000010037
:1006A0000000C25C3F0001000100010000002B5D62
:1006B00040000100010001000100C95C410001008F
:1006C0000100010001000100420026022F022F005C
:1006D0000100010043002702300230000100CA5C23
:1006E000440045000100010001000000010001007C
:1006F00001000100010000000100010001000100F3
:100700000100010001000100F200010001000100F0
:100710000100F000F10001000100F50001000100FE
:10072000F3000100F40001000100010001000100DC
:100730000000510001000100000001000000520013
:100740000100F9000000FA00000001000100000FA4
:10075000F200FD000000010001000100F100FE00B8
:10076000F500010001000100F000FF000100F400AD
:1007700001000100F300010001000100010001007F
:100780000100010001000100010001000100010061
:100790000100000001000100010001000100000053
:1007A0003A000100010001000100CA5C3B004A0060
:1007B00050004E00010001003C00520051000100B9
:1007C00001004A003D004D004F004B0001000100B8
:1007D0003E000100010001000000C35C01000100B7
:1007E0000000010000002B5D01000100000001007D
:1007F0000000C25C3F004A005000010000002C5D78
:1008000040004E00510001000100C55C41004B005A
:100810005200010001004D0042004D004F00010058
:100820000100010043000100010001000100C65C5D
:1008300044004500010001000100000001003E00ED
:1008400001000100010000003A003F00010001002A
:10085000010001003B004000010001000100010017
:100860003C00410001000100010001003D00420088
:1008700044000100010001003E004300450001006A
:100880000000010001000100000001000000010063
:100890000100010000000100000001000100010052
:1008A0000100010000000100010001000100010041
:1008B0000100010001000100010001000100010030
:1008C0000100010001000100010001000100010020
:1008D0000100010001000100010001000100010010
:1008E0000100000001002B002900E10001000000D0
:1008F0000100140004001D000100010001001A00A5
:1009000016001B0001000654010008000700060045
:1009100028002A0001001500090019002C00010020
:10092000010017000A00050000000100010001009D
:1009300000000100000001000100010000000100B2
:1009400000000100010001000100010000000100A1
:10095000010001000100010001000100010001008F
:10096000010001000100010001000100010001007F
:10097000010001000100010001000100010001006F
:1009800001000100010001000100000001002B0036
:100990002900E5000100000001001C000B0011000F
:1009A00001000100010018000D001000010001000D
:1009B00001000C000E00850028002A000100120032
:1009C0000F0063002C0001000100130033005400ED
:1009D0000000010001000100000001000000010012
:1009E0000100010000000100000001000100010001
:1009F00001000100000001000100010001000100F0
:100A000001000100010001000100010001000100DE
:100A100001000100010001000100010001000100CE
:100A200001000100010001000100010001000100BE
:100A30000100000005010902A10185020901A100D0
:100A40000509190129051500250195057501810282
:100A50009501750381010501093009311581257F53
:100A600095027508810609381581257F950175085D
:100A70008106050C0A38021581257F9501750881CC
:100A800006C0C005010980A101850319012AB7002C
:100A9000150126B700950175108100C0050C0901EC
:100AA000A101850419012AA002150126A0029501C1
:100AB00075108100C005010906A10185050507190A
:100AC000E029E71500250195087501810205071940
:100AD0000029EF1500250195F0750181020508191F
:100AE000012905950575019102950175039101C0D4
:100AF00005010906A101050719E029E715002501EF
:100B00009508750181029501750881010507190095
:100B100029FF150026FF00950675088100050819B4
:100B2000012905950575019102950175039101C093
:100B300009023B00020100A0FA09040000010301C0
:100B4000010009211101000122400007058103086D
:100B5000000A09040100010300000009211101003D
:100B60000122BC000705820320000A1201100100C7
:100B700000000897327649010001020301040330A6
:100B800000000020034500720067006F0044006F02
:100B9000007800200045005A00200047006C006FDC
:100BA000007700000030035A005300410020005439
:100BB000006500630068006E006F006C006F0067E6
:100BC00000790020004C00610062007300200049A1
:100BD000006E0063000000040309040011241FBE1E
:100BE000CFEFDAE0DEBFCDBF26E0A6EAB3E001C07A
:100BF0001D92AC34B207E1F713E0A0E0B1E0E0E40D
:100C0000F7E602C005900D92A63AB107D9F70E9407
:100C10007A2B0C943F330C940000E8EDF0E08081D7
:100C20008E7F80831092E2001092DA001092E10031
:100C3000A0EEB0E08C9181608C9380818F7780836F
:100C400019BCA7EDB0E08C918E7F8C9380818F7E54
:100C5000808310920F0608952091E4003091E50002
:100C600095E6A9012091EC00822F817020FF06C03B
:100C70008091E80080FF06C080E008952091E800A0
:100C800022FD1AC080913506882389F0853089F0CD
:100C90008091EB0085FD0FC02091E4003091E500CC
:100CA00042175307F9F29150E1F684E0089582E08B
:100CB000089583E0089581E00895EF92FF920F93E5
:100CC0001F93CF937C018B010E942C06C82F8111AA
:100CD00017C08091E80085FD0BC08091E8008E77F9
:100CE0008093E8000E942C06882399F3C82F08C03F
:100CF000F70181917F018093F1000150110949F7BB
:100D00008C2FCF911F910F91FF90EF9008958091BC
:100D1000370687FF13C08091E80082FF06C08091EC
:100D2000E8008B778093E80004C08091350681113C
:100D3000F2CF0895809135068823D9F38091E80099
:100D400080FFF8CF8091E8008E77ECCF982F9093BA
:100D5000E900242F762F50E0891731F07091EC00D4
:100D60002091ED005091F00021FD07C09F5F97306A
:100D700071F78093E90081E008953091EB003E7FA8
:100D80003093EB003091ED003D7F3093ED003091DA
:100D9000EB0031603093EB007093EC002093ED009A
:100DA0005093F0002091EE0027FDE0CF80E0089501
:100DB000CF92DF92EF92FF920F931F93CF93DF9327
:100DC000C8EDD0E088818F7E8883E7EDF0E08081F8
:100DD0008160808384E082BF81E080930F068881F8
:100DE0008E7F888302EE10E0F80110821092DA0004
:100DF00081EEC82ED12CF601108288818F778883EE
:100E000088818068888388818F7D888319BC10924F
:100E1000350610923606109234061092330690EE84
:100E2000E92EF12CF70180818B7F8083888181609E
:100E3000888342E060E080E00E94A606F60180819F
:100E40008E7F8083F80180818160808380818860CB
:100E50008083F70180818E7F808388818061888391
:100E6000DF91CF911F910F91FF90EF90DF90CF9086
:100E70000895FC0180913D0690913E0686179707E4
:100E8000A0F06115710529F49091E8009E77909388
:100E9000E80090E06115710551F4911108C080914E
:100EA000E80082FF34C080E00895BC01F2CF809159
:100EB00035068823C1F18530C1F18091E80083FDBA
:100EC00030C08091E80082FDEACF8091E80080FF89
:100ED000E1CF8091F3002091F200382F6115710568
:100EE00019F02830310558F091E02830310509F02B
:100EF00090E02091E8002E772093E800CBCF8191FD
:100F00008093F100615071092F5F3F4FE7CF8091CF
:100F10003506882341F0853041F08091E80083FF59
:100F2000BECF81E0089582E0089583E00895809126
:100F3000120608959091FB05803F59F48091FC05BD
:100F400087FF0DC01092FC0591110BC01092F605A1
:100F500008C0813F81F48091FC0518169CF3992309
:100F600081F08091FD059091FE05892B09F064C008
:100F70001092F3050895823F49F497FFF0CF109245
:100F8000FB058091FC058111ECCFE0CF833F19F484
:100F90001916ACF3E4CF2091FD05893F29F4121610
:100FA000F4F61092FD05DBCF8A3F19F427FFD7CF67
:100FB000F8CF2091FE058B3F29F427FFD0CF109268
:100FC000FE05CDCF8C3F19F41216CCF3C8CF843F69
:100FD00031F48091FA058E7F8093FA05C0CF853F6A
:100FE00021F48091FA058D7FF7CF863F21F480911F
:100FF000FA058B7FF1CF873F21F48091FA05877F37
:10100000EBCF883F21F48091FA058F7EE5CF8D3FAD
:1010100031F48091C3058E7F8093C305A0CF8E3FAE
:1010200021F48091C3058D7FF7CF8F3F09F097CFD3
:101030008091C3058B7FF0CF08958091C30580FD1B
:101040001AC081FD14C082FD14C08091F30588236D
:1010500091F08A3170F425E0829FC00111246AE189
:1010600070E00E94472F862F672B29F0089582E0B9
:10107000089585E0089581E008958091C30580FD7D
:1010800016C081FD16C082FD18C08091F605882328
:1010900091F08D3290F42FE0829FC00111246DE217
:1010A00070E00E94472F862F672B49F0089583E058
:1010B000089587E0089585E008958FE0089581E020
:1010C0000895803F31F40E943D0881958093FC058E
:1010D0000895813F19F40E943D08F8CF823F31F412
:1010E0000E943D0881958093FB050895833F19F484
:1010F0000E943D08F8CF893F29F40E941D08809383
:10110000FD0508958A3F21F40E941D088195F7CFBF
:101110008B3F31F40E941D0881958093FE05089550
:101120008C3F19F40E941D08F8CF843F31F4809160
:10113000FA0581608093FA050895853F21F4809136
:10114000FA058260F7CF863F21F48091FA0584602A
:10115000F1CF873F21F48091FA058860EBCF883F7B
:1011600021F48091FA058061E5CF8D3F31F48091C3
:10117000C30581608093C30508958E3F21F480915B
:10118000C3058260F7CF8F3FB9F78091C3058460B4
:10119000F1CF9C014FB7F8948091BF059091C005A5
:1011A000A091C105B091C2054FBF821B930B08955A
:1011B000209118012223C9F02091E00527FF15C0D6
:1011C000E62FE695E695E695EE31D8F4E80FF92F8F
:1011D000F11D677021E030E001C0220F6A95EAF747
:1011E00020958281282322830895FC013296089657
:1011F0002191621303C0DF0111971C92E817F907D0
:10120000B9F70895209118012223C1F02091E0053B
:1012100027FF14C0E62FE695E695E695EE31F8F443
:10122000E80FF92FF11D677021E030E001C0220FB7
:101230006A95EAF78281822B82830895FC013296B7
:101240002FEF30E04191641751F02F3F19F4411115
:1012500001C0232F3F5F3630A9F72F3F09F40895CF
:10126000820F911D27FD9A95FC0162830895CF920C
:10127000DF92EF92FF926C01EE24FF2420E0C11474
:10128000D104E104F10419F0C701B60120E1C72E31
:10129000D82EE92EFF24C114D104E104F10419F081
:1012A000285FC701B6016B017C0154E0F694E79416
:1012B000D794C7945A95D1F7C114D104E104F1042D
:1012C00019F02C5FC701B6016B017C0142E0F69476
:1012D000E794D794C7944A95D1F7C114D104E10497
:1012E000F10419F02E5FC701B601969587957795A1
:1012F0006795672B682B692B09F02F5F822FFF9072
:10130000EF90DF90CF9008958091BA0581111092EF
:10131000BA0508958091B9059091B805892B9091EF
:10132000B705892B8093A6039091BA059923A1F064
:10133000892B8093A60380911801882341F1809125
:10134000E00587FF24C08EE1E8EAF3E090E08150F9
:1013500000F591110E948409E091E205F091E30506
:101360003097E1F080911801882359F08091E005D1
:1013700087FF07C08091A6038093A70385E0809331
:10138000A6030280F381E02D86EA93E0099486E0CB
:10139000DBCF21912223D9F29F5FD9CF0895E92F86
:1013A000EE0FE90FEE0F8E0F982F977086958695AA
:1013B000869525E0829FF0011124E158FA4F50E014
:1013C00040E080E0219130E0092E02C0369527955B
:1013D0000A94E2F721703327042E01C0220F0A94E9
:1013E000EAF7822B4F5F5F4F4530510559F708955B
:1013F000E92FEE0FE90FEE0F8E0F982F977041E057
:1014000001C0440F9A95EAF786958695869595E0F2
:10141000899FF0011124E158FA4F30E020E070E09C
:101420005191DF011197CB01022E02C0969587954D
:101430000A94E2F7817081958527842385278C9310
:101440002F5F3F4F2530310559F7089580917E0574
:1014500090914D05981301C008958F5F8770FACF62
:10146000882341F080959091B80589238093B80531
:101470000C948A090895882339F09091B805982B27
:101480009093B8050C948A090895882341F08095BB
:101490009091B90589238093B9050C948A09089520
:1014A000882339F09091B905982B9093B9050C9445
:1014B0008A0908952091310530913205281739079E
:1014C00071F09093320580933105E091E205F0913F
:1014D000E305309721F00084F185E02D099408950B
:1014E00020912F05309130052817390771F090931E
:1014F000300580932F05E091E205F091E3053097E8
:1015000021F00680F781E02D09940895E091E2052D
:10151000F091E305309721F00190F081E02D0994DE
:1015200080E00895FA01811101C0FB010994803324
:10153000910538F5880F991F880F991FFC01E85D08
:10154000FE4F5281338180818370E181A82FB0E00A
:1015500070E9879FC001112489519C4FE80FF92F32
:10156000F11DB4976083FC01E50FF11DB497408332
:10157000830F911DFC01B4972083AB51BC4F81E0D8
:101580008C930895FF920F931F93CF93DF93182F9F
:10159000062FF42ED0E0C0E02F2D402F612FCE017A
:1015A0000E94970A2196C033D105B1F7DF91CF9100
:1015B0001F910F91FF90089580914306837011F45D
:1015C00010921C01809143068C7F816080934306BA
:1015D00008950C94C20A0C94970A0F931F9310E07D
:1015E000F801EE0FFF1FEB5EFC4F9081905797FDC7
:1015F0009195000F111FF801EA5EFC4F0081005227
:10160000110B2003F001219FF00D112408E310E0DD
:10161000091B110997FD139540039001419F300D5F
:101620001124E20FF31F9F01220F331F2E0F3F1FC4
:1016300037FF02C021583F4F220F232F221F330BA9
:10164000620F1F910F9108950F931F93522F10E077
:10165000F801EE0FFF1FEA5EFC4FA081A052BB0B0A
:101660009D015203F001539FF00D1124000F111F33
:10167000D801AB5EBC4F0C910057110B4003900199
:10168000419F300D11242E0F3F1F37FF02C0215CF8
:101690003F4F96E0359527959A95E1F7620F1F9198
:1016A0000F9108950F931F93522F10E0F801EE0F42
:1016B000FF1FEA5EFC4FA081A052BB0B9D015203AD
:1016C000F001539FF00D1124000F111FD801AB5EE4
:1016D000BC4F0C910057110B40039001419F300DFE
:1016E00011242E0F3F1F37FF02C021583F4F220FFA
:1016F000232F221F330B620F1F910F910895EF923A
:101700000F93972F23E0029FB001112475956795E1
:101710006E0D792F0F91EF900895322F50E0FA015E
:10172000EE0FFF1FEA5EFC4F9081905297FD91955E
:10173000440F551FFA01EB5EFC4F2081231B330B36
:10174000290F311D97FD3A95620F0895E42FF0E0BF
:10175000EE0FFF1FEA5EFC4F6081621B0895E42FCD
:10176000F0E0EE0FFF1FEB5EFC4F6081621B0895FF
:10177000622F0895E42FF0E0EE0FFF1FEB5EFC4FA9
:10178000408134EE439F412D1124E82FF0E050E0DA
:10179000445E5F4FDA01A21BB1099D01B7FF03C090
:1017A00031952195310993E0220F331F9A95E1F786
:1017B000AF01421B530B9A0157FD20E0582F259F84
:1017C000212D1124822F0895E42FF0E0EE0FFF1F4A
:1017D000EB5EFC4F408134EE439F412D1124E72FF7
:1017E000F0E050E0445E5F4FDA01A21BB1099D01B9
:1017F000B7FF03C031952195310993E0220F331FC4
:101800009A95E1F7AF01421B530B9A0157FD20E077
:10181000279F212D1124722F0895FC019B01009711
:1018200029F480E077FF2BC080E80895AC0197FF92
:1018300004C044275527481B590BB901640F751F75
:1018400037FD10C0241B350BC901A5E0880F991F77
:10185000AA95E1F70E94472F80E2861BF7FF0FC091
:1018600081950895CB0165E0880F991F6A95E1F78E
:10187000BA01621B730B0E94472F80E6EECF0895DA
:10188000EF920F93CF93DF93D72FC82FC9010E1973
:10189000BA010E940D0C602F681B7D2F8C2FDF91E9
:1018A000CF910F91EF9008950F93CF93DF93D72FA0
:1018B000C82FC901BA010E940D0C682F600F7D2F3F
:1018C0008C2FDF91CF910F910895EF920F931F937B
:1018D000CF93DF93D62FC72F182FC9010E19010FF1
:1018E000BA010E940D0C081B202F219F212D1124CD
:1018F000822F6D2F7C2FDF91CF911F910F91EF9051
:101900000895EF920F931F93CF93DF93D62F172F46
:10191000C82FC9010E19070FBA010E940D0C702FB4
:10192000781B719F712D11246D2F8C2FDF91CF911A
:101930001F910F91EF9008950F931F93CF93DF9313
:10194000D62FC72F182FC901212F201B022FBA0114
:101950000E940D0C982F990F990F891B800F282F2B
:10196000219F212D1124822F6D2F7C2FDF91CF916C
:101970001F910F9108950F931F93CF93DF93D62F4D
:10198000172FC82FC901272F201B022FBA010E9431
:101990000D0C982F990F990F782F791B700F719F4D
:1019A000712D11246D2F8C2FDF91CF911F910F91ED
:1019B0000895E82F86FDE0952E2F2F7086FD2F5F6E
:1019C000E695E695E695E670F0E0E05EFE4F9181E3
:1019D000929F902D212D112492959F702295207F0A
:1019E000922B2081920F87FD919580E8890F0895B1
:1019F000AC018230910508F408959FEF413E8EE1DD
:101A0000580740F49A0195E0369527959A95E1F7A5
:101A100098E0920F61E0E62FE90FFF27FF1F9F017B
:101A200035952795822F229FF001239FF00DF00D11
:101A300011244E175F0738F49FEF920F961758F74F
:101A40008FEF860F08952F3FE9F361E0620FF6CF25
:101A50000F93CF93DF93D72FC82F47FD419588E38E
:101A600090E0841B910947FD9395889FB001899F61
:101A7000700D700D1124229FC001239F900D900DB9
:101A80001124860F971F0E94F80C982F990F890F29
:101A9000682F600F7D2F8C2FDF91CF910F910895CC
:101AA00030E020E0869F212D969F200D311D1124CE
:101AB000C9010895AF92BF92CF92DF92FF920F9328
:101AC0001F93CF93DF93362F472FE82FF0E0E45694
:101AD000FB4F71110FC0E4918E2F2E2F6E2F722F9E
:101AE000DF91CF911F910F91FF90DF90CF90BF902A
:101AF000AF900895C72FD0E02491F22E022F10E06E
:101B000056E0659FC0011124EFEFF0E0BF010E9495
:101B1000332F832F90E0880F991F35E5369FD00132
:101B2000379FB00D11248A1B9B0B982F990F980F8C
:101B30006F01CC1ADD0AC09ED001C19EB00DD09EAF
:101B4000B00D11248B2F499FA0011124452F55273B
:101B50006F01C41AD50AC09EA001C19E500DD09E2F
:101B6000500D11245F01A91AB108AC9E6001AD9E11
:101B7000D00CBC9ED00C1124CD2CDD24EC19FD0919
:101B8000E09FE001E19FD00DF09FD00D1124ED2FDB
:101B900062307105A1F050F46115710509F49ECF12
:101BA0006130710581F0EB2F852F98CF643071057E
:101BB00069F080F06630710509F490CFF4CFE22F20
:101BC0002B2F8D2F8BCFE22F252F88CFEB2F822F1E
:101BD0002D2F84CF2B2F8F2DE52F80CF9F92AF926B
:101BE000BF92CF92DF92EF92FF920F931F93CF930A
:101BF000DF936C0180911901C82FCC0FCC0FC80F57
:101C000015E01C0FB12E113310F030E3B32E6091AC
:101C100047066695669580913F06909140060E9422
:101C2000500DF82E80E48F0D0E94D90C90E8A92E5B
:101C3000A80E8F2D0E94D90C20E8922E980ED0E08D
:101C4000CB1580F081E0103308F080E0DF91CF9178
:101C50001F910F91FF90EF90DF90CF90BF90AF90CA
:101C60009F900895FE01EB58FC4F808190911A01DE
:101C70008923A1F060914406709145068091460643
:101C8000EF2C0C2F292D4A2DF60109950E945A0D93
:101C9000462F282F672FCE010E94EB0A2196D0CF26
:101CA0007F928F929F92AF92BF92CF92DF92EF92EC
:101CB000FF920F931F93CF93DF935C0180911901E3
:101CC000C82FCC0FCC0FC80F15E01C0FF12E11330D
:101CD00010F030E3F32E60914706669580913F0641
:101CE000909140060E94500D782ED0E0CF1590F0D4
:101CF00081E0103308F080E0DF91CF911F910F91C8
:101D0000FF90EF90DF90CF90BF90AF909F908F901B
:101D10007F900895FE01EB58FC4F808190911A014D
:101D20008923C9F1CE01880F991F8F539D4FFC0164
:101D3000EC5AFF4F2081422F4057550B6A018B5AB6
:101D40009F4FFC018081282F2052330B4901449F73
:101D50009001459F300D300D1124889CC001899C55
:101D6000900D900D1124820F931F0E94F80C082FE4
:101D7000609144067091450680914606E72C9401D7
:101D8000A601F50109950E945A0D462F282F672FAD
:101D9000CE010E94EB0A2196A9CFCF92DF92EF925B
:101DA000FF920F931F93CF93DF937C0180911901D2
:101DB000C82FCC0FCC0FC80F15E01C0FD12E11333C
:101DC00010F030E3D32E60914706669580913F0670
:101DD000909140060E94500DC82ED0E0CD1568F0BD
:101DE00081E0103308F080E0DF91CF911F910F91D7
:101DF000FF90EF90DF90CF900895FE01EB58FC4FDD
:101E0000808190911A01892311F1CE01880F991FC9
:101E10008F539D4FFC01EB5AFF4F20812052330B13
:101E20008C5A9F4FFC0140814057550B60914406EE
:101E300070914506809146060C2DF70109950E9488
:101E40005A0D462F282F672FCE010E94EB0A2196AC
:101E5000C5CFDF92EF92FF920F931F93CF93DF9343
:101E60007C0180911901C82FCC0FCC0FC80F15E051
:101E70001C0F012F113308F000E3609147066695AF
:101E8000669580913F06909140060E94500DD82E95
:101E9000D0E0C01760F081E0103308F080E0DF91FF
:101EA000CF911F910F91FF90EF90DF900895FE0169
:101EB000EB58FC4F808190911A01892391F0609139
:101EC000440670914506809146062D2D4C2FF70152
:101ED00009950E945A0D462F282F672FCE010E9488
:101EE000EB0A2196D6CF9091E00592FF06C0282FED
:101EF00028712830F9F4877F846093FF06C0282F6B
:101F000028712831F1F4877E84612091E10520FF5A
:101F100006C0382F38713830D9F4877F816021FFAF
:101F200006C0282F28712831D1F4877E816194FD65
:101F3000877E0895282F24712430F9F68B7F8860DE
:101F4000DCCF282F2471243101F78B7E8861DDCF0F
:101F5000382F3171313019F78E7F8860E0CF282F0C
:101F60002171213121F78E7E8861E1CFCF93DF93FC
:101F7000972F70E026E0929F600D711D1124FB01E8
:101F800034E5839FE00DF11D1124EE0FFF1FE45691
:101F9000FA4FC591D491CE01C238D105B9F1E8F517
:101FA000C133D10509F499C050F5C932D10509F4FE
:101FB0008DC0CA32D10509F497C0C11542E5D407D6
:101FC00008F0C4C0C11521E5D20708F038C1C83EE9
:101FD000D10508F09DC0C03ED10568F5C83AD105CD
:101FE00008F089C0C53AD10508F005C1C130D10556
:101FF00011F1209709F443C02497E8F440C0C53399
:10200000D10509F45CC0C933D105B9F62091E005CA
:10201000237089F080EE90E00EC0C33ED10591F1AF
:1020200068F4C03ED105F9F0C23ED10531F62091E9
:10203000E00522FD20C0DF91CF910895C63ED10575
:1020400061F1C73ED10581F1C43ED10509F0B5CF9C
:102050002091E10521FFEFCF8091E00584FD0FC0C5
:1020600087EE90E0E8CF2091E00520FD19C1309186
:10207000E10530FFE0CF83EE90E024FFDCCF90E07D
:1020800080E0D9CF2091E00522FD0DC13091E1051E
:1020900030FDC0CF24FFCFCFF2CF2091E00523FF4A
:1020A000CACF24FDECCFDCCF2091E00523FDFEC09C
:1020B0003091E10531FFEECF84EE90E0BCCF20916E
:1020C000E00525FFB8CF89E290E0B5CF2091E0058B
:1020D00025FFB1CF85E390E0AECF2091E00526FF4C
:1020E000AACF8AE290E0A7CF2091E00526FFA3CFF8
:1020F00081E390E0A0CFCF3BD10508F6C85AD0E0ED
:10210000CC0FDD1FCD56DD4F88819981946493CF2C
:10211000C11530E2D30760F4C11541E0D40708F0DF
:102120008ACFCE019065C03FD10508F084CFA7CFFC
:10213000C11580E4D80708F4A2CFC11590E5D907EE
:1021400008F061C0CE019F70906A75CFC11526E579
:10215000D20718F5C11535E5D30708F086C0C115BB
:1021600044E5D40708F07CC09C2F96959695AE0167
:1021700043705527C115D34508F466C021E030E00F
:1021800002C0220F331F4A95E2F740E2949FC0013C
:102190001124822B932B9A684ECFC1159AE5D9074B
:1021A00078F4C11529E5D20708F069C0C11538E5F2
:1021B000D30708F464CF9C2F8827806F906A3BCFA9
:1021C000C1154BE5D40708F45ACFC1158CE5D807E3
:1021D00008F462C0CE0190568115904208F04FCFAE
:1021E0008D2F8F710E94730F90E0982F882788277A
:1021F0009F718C2B42C0C55AD0E0C057DD4F8881FB
:1022000090E0906418CF9E01E4E036952795EA951A
:10221000E1F723708C2F86958695837030E2839F3B
:10222000C0011124922BC37021E030E002C0220FC4
:10223000331FCA95E2F7822B932B9C68FCCE9C2F10
:102240008827816F906AF7CE21E030E002C0220F2C
:10225000331F4A95E2F740E2949FC0011124EBCF6F
:102260009C2F8827846F906AE6CE8C2F0E94730F74
:1022700090E0982F882788279F719062DCCE8C2F62
:102280008F700E94730F34E0D695C7953A95E1F7A9
:10229000CF709C2F9069CFCECE0199279066CBCE80
:1022A00089E390E0C8CE82EE90E0C5CE86EE90E065
:1022B000C2CEBF92CF92DF92EF92FF920F931F9305
:1022C000CF93DF938C01C090DC05D090DD05E090CA
:1022D000DE05F090DF058091BB059091BC05A091D3
:1022E000BD05B091BE05C82AD92AEA2AFB2ACFE14A
:1022F000D0E0BC2ED701C6010C2E04C0B695A79520
:10230000979587950A94D2F780FD0EC0219788F79C
:10231000B12C8B2DDF91CF911F910F91FF90EF90FA
:10232000DF90CF90BF900895B8018C2F0E94B60F18
:10233000019761F3EECFCF93DF93EC010E94591127
:10234000BE01DF91CF910C94B60F0E949B11292FF3
:102350002F7092959F7092509E3078F4E92FF0E0A4
:10236000EF5BFC4C0C945B2F803F19F020F4883E0F
:1023700020F481E00895843FE1F380E00895883EF1
:10238000C0F3813FD1F7F5CF822F8695869586954C
:1023900008959F92AF92BF92CF92DF92EF92FF92F9
:1023A0000F931F93CF93DF9320E9289FE001299F8C
:1023B000D00D1124C455DF4F10E000E0FE01649100
:1023C0003196749131968491962F972B982BC1F466
:1023D00020E040E060E0C8010E94EB0A0F5F1F4F61
:1023E00023960033110551F7DF91CF911F910F9183
:1023F000FF90EF90DF90CF90BF90AF909F900895A7
:102400000E945A0D962EB72EA82E6091460670E0B7
:1024100090E080E00E94443220E030E04FE753E457
:102420000E94A3316B017C016A2D70E090E080E096
:102430000E944632A70196010E94D2320E941532B4
:10244000A62E692D70E090E080E00E944632A70140
:1024500096010E94D2320E941532962E6B2D70E0AA
:1024600090E080E00E944632A70196010E94D2329D
:102470000E9415322A2D492DAECF27982F98089506
:1024800026982E98089525982D98089556985E9828
:102490000895279A2F9A0895269A2E9A0895259A94
:1024A0002D9A0895CF92DF92EF92FF92CF936B0116
:1024B0007C010E943709C82F0E9446120E944312D5
:1024C0000E9440120E943D12C150C73040F4EC2FD0
:1024D000F0E0E15BFC4C0C945B2F0E944F12C701B3
:1024E000B601CF91FF90EF90DF90CF9008950E94BA
:1024F0004F120E944C12F3CF0E944F120E944912B9
:10250000EECF0E944F120E944C12F8CF20982898CC
:102510002198299822982A9823982B9852985A986B
:1025200053985B983E98469808958098889A819829
:10253000899A84988C9A85988D9A86988E9A87988D
:102540008F9A0895CF9384E090E00E94F830C82FCE
:1025500081E290E00E94F830982F8C2FCF9108955F
:10256000CF93DF9300D00F92CDB7DEB790913506B1
:10257000943019F589837B836A8382E08093E90034
:102580008FEF9091E800815095FD06C095ED9A95EA
:10259000F1F700008111F5CF8091E80085FF0DC0B3
:1025A00050E040E063E070E0CE0101960E945D06DD
:1025B0008091E8008E778093E8000F900F900F9045
:1025C000DF91CF910895BC0184E00C94B012BC015E
:1025D00083E00C94B0129C0182E08093E9009FEFAD
:1025E0008091E800915085FD06C085ED8A95F1F750
:1025F00000009111F5CF8091E80085FF0CC050E0FC
:1026000040E066E070E0C9010E945D068091E8004C
:102610008E778093E8000895CF93DF93EC0180914B
:1026200018018823B1F18091E00587FF32C060E294
:1026300082E08093E9008FEF9091E800815095FD52
:1026400006C095ED9A95F1F700008111F5CF8091C4
:10265000E80085FF1BC08091180170E050E040E069
:10266000811104C050E040E068E070E0CE010E94BB
:102670005D068091E8008E778093E80080E2FE019D
:10268000A3E1B6E001900D928A95E1F7DF91CF9139
:10269000089568E081E0CDCFEF92FF920F931F93F2
:1026A000CF93DF930E9446120E9443120E94401271
:1026B0000E943D1288E8E82EF12C8FEF90E0F701A0
:1026C000918380830AE810E0F80191838083CCE84D
:1026D000D0E0998388830E944F12FFEF20E782E0C9
:1026E000F15020408040E1F700C000000E944C12F1
:1026F0009FEFE0E7F2E09150E040F040E1F700C0EA
:1027000000000E9449122FEF80E792E021508040A4
:102710009040E1F700C000000E944312EFEFF0E7A5
:1027200022E0E150F0402040E1F700C000000E94AC
:1027300040128FEF90E7E2E081509040E040E1F7F7
:1027400000C000000E943D128091CA058770FFEF13
:102750008F9FC00111249595879595958795992709
:10276000F70191838083F801918380839983888323
:102770000E9446120E9443120E944012DF91CF91A4
:102780001F910F91FF90EF900C943D126FEE7EEF32
:1027900090E080E00E943A3160E082E090E00E94A8
:1027A0001C3160E083E090E00E941C311092BB0578
:1027B0001092BC051092BD051092BE0560E084E049
:1027C00090E00E941C3160E081E290E00E941C31A8
:1027D00060E085E090E00E941C3160E086E090E0DF
:1027E0000E941C316FEF87E090E00E941C3140E0B6
:1027F00050E0BA0188E090E00E942E3160E08DE068
:1028000090E00E941C3140E050E0BA0188E190E085
:102810000E942E3160E087E190E00E941C3140E090
:1028200050E0BA018CE190E00E942E3160E080E23D
:1028300090E00E941C311092CA051092CB051092B4
:10284000CC051092CD0584E080618093CA0540914B
:10285000CA055091CB056091CC057091CD058FE0F4
:1028600090E00E942E3140E050E0BA0183E190E018
:102870000C942E310F931F93CF93DF93082F000FEB
:10288000EB0114E21093D103E2EDF3E0DE018D9150
:10289000819383E0E23EF807D1F724E630E041E19E
:1028A00050E061ED73E0802F0E94082F105F60966A
:1028B000143B41F7DF91CF911F910F9108958091C3
:1028C000E503882329F067EE73E084E70E943A1459
:1028D0001092E5038091E603882329F067E774E00E
:1028E00087E70E943A141092E6030895E1EDF3E0C1
:1028F0006083418324E630E042E050E0BF01880F6E
:102900000C94082F0F931F93CF93DF93082FE62F7C
:10291000F0E0E55DFA4F8081882379F082E1689FDD
:10292000E0011124C95FDA4F10E04991612F802F37
:102930000E9476141F5F1231C1F7DF91CF911F9172
:102940000F910895CF93DF93C82F4BE06DEF0E9456
:10295000761440E06AE08C2F0E9476148FE39CE9A5
:102960000197F1F700C0000040E060E08C2F0E946A
:10297000761440E061E08C2F0E94761440E066E01F
:102980008C2F0E94761440E06DEF8C2F0E947614FD
:10299000D0E040E06D2F8C2F0E947614DF5FD231A3
:1029A000C1F740E06D2F8C2F0E947614DF5FD43288
:1029B000C1F740E06D2F8C2F0E947614DF5FD43B6F
:1029C000C1F74BE06DEF8C2F0E94761441E06AE076
:1029D0008C2F0E94761440E06DEF8C2FDF91CF9109
:1029E0000C9476146F927F928F929F92AF92BF92C7
:1029F000CF92DF92EF92FF920F931F93CF93DF93CB
:102A00000E94532E84E70E94A21487E70E94A2141A
:102A100068E2E62E61E0F62ED12CC12C72E1772E11
:102A2000E8E08E2E912CAA24A394B12C6624639402
:102A3000F701418150E0CA01849702810452110BD1
:102A4000C381C452DD0BF601EE0FFF1FEE0FFF1F17
:102A5000E85DFE4F2081237030E0FC0197FD379642
:102A600043E0F595E7954A95E1F7729EA001739EC4
:102A7000500D1124495F5A4FE40FF52FF11DB40199
:102A80000E94472FA50101C0440F8A95EAF7808173
:102A9000842B8083F80117FD379693E0F595E79531
:102AA0009A95E1F7729EC001739E900D1124895F83
:102AB0009A4FE80FF92FF11DC801B4010E94472F6A
:102AC000A50101C0440F8A95EAF78081842B808399
:102AD000FE01D7FD379683E0F595E7958A95E1F7F6
:102AE000729EC001739E900D1124895F9A4FE80F6A
:102AF000F92FF11DCE01B4010E94472FA50101C09D
:102B0000440F8A95EAF78081842B8083255D3A4FB4
:102B1000F9016082FFEFCF1ADF0A84E0E80EF11CB2
:102B2000E0E3CE16D10409F083CF60E084E70E9491
:102B3000821461E087E7DF91CF911F910F91FF90A1
:102B4000EF90DF90CF90BF90AF909F908F907F904D
:102B50006F900C9482141F93CF93DF93EC01FC01D0
:102B6000EB58FC4F80816823A1F00E94AD2F182FF5
:102B70000E94AD2F612F782F809146060E945A0D3A
:102B8000462F282F672FCE01DF91CF911F910C94F4
:102B9000EB0ADF91CF911F910895DF92EF92FF92A0
:102BA0000F931F93CF93DF938C01FC01EB58FC4FE5
:102BB0008081682381F1D0904506D0914606C0916E
:102BC0004406EC2EF12C0E94AD2F282FC7018C5407
:102BD0009F4F68E671E00E94472F8E199F0997FD6D
:102BE0000396959587959595879523706C2F289FCB
:102BF000600D11247D2D8D2F0E945A0D462F282FF8
:102C0000672FC801DF91CF911F910F91FF90EF9037
:102C1000DF900C94EB0ADF91CF911F910F91FF9001
:102C2000EF90DF90089545E050E06CE170E083E4C0
:102C300096E00C940C3190914306937041F0809390
:102C4000440660934506409346060C941316089577
:102C5000E3E4F6E0438120E1421B08F440E0818197
:102C6000628190E00C941B16E3E4F6E0438120E1DE
:102C7000420F08F44FEF8181628190E00C941B16A3
:102C8000E3E4F6E0628120E1621B08F460E0818108
:102C9000438190E00C941B16E3E4F6E0628120E1AE
:102CA000620F08F46FEF8181438190E00C941B1652
:102CB000E3E4F6E08181438162818850990B0C94B2
:102CC0001B16E3E4F6E0818190E04381628108967F
:102CD0000C941B1690914306937089F0811107C0E4
:102CE00094609093430610921C010C941316893142
:102CF00010F09066F6CF880F880F982BF2CF0895CA
:102D00008091430686958695815009F488E10C945C
:102D10006A1680914306869586958F5F893108F003
:102D200081E00C946A16E3E4F6E0248130E1230F9D
:102D300008F42FEF24830C941316E3E4F6E02481C7
:102D400030E1231B08F420E024830C941316E3E401
:102D5000F6E085E3808380911D0190911E01A09192
:102D60001F0181839283A3838CE384830C941316C5
:102D70000E94F21490E080E00E9406318F3E9E4F48
:102D800021F00E94C6130E94A71645E050E06CE1B6
:102D900070E083E496E00E94E830809143068C7FE7
:102DA00011F40C94A716089580E290E090930D0121
:102DB00080930C018091C60381110EC00E94532E96
:102DC00081E08093C6032FEF83ED90E32150804094
:102DD0009040E1F700C0000064E670E080E40E94EB
:102DE000592E90930D0180930C01892B09F04EC050
:102DF00064E670E080E00E94B52E90930D01809310
:102E00000C01892B09F042C064E670E080E00E946A
:102E1000B52E90930D0180930C01892BB9F564E6D2
:102E200070E08FE30E94B52E90930D0180930C010A
:102E3000892B61F50E942F2F64E670E080E40E94E8
:102E4000592E90930D0180930C01892BF9F464E6BF
:102E500070E08CE00E94B52E90930D0180930C01E0
:102E6000892BA1F464E670E080E00E94B52E909377
:102E70000D0180930C01892B49F464E670E08FE327
:102E80000E94B52E90930D0180930C010E942F2F6C
:102E900080910C010895CF93C82F873070F58091F1
:102EA0000C0190910D01892B89F564E670E080E4B6
:102EB0000E94592E90930D0180930C01892BD1F41F
:102EC00064E670E082E10E94B52E90930D0180933C
:102ED0000C01892B79F481E090E001C0880FCA953C
:102EE000EAF764E670E080950E94B52E90930D019C
:102EF00080930C01CF910C942F2F8A30B9F040F4BD
:102F0000883071F0893079F0209A2898CF9108950F
:102F10008C3091F070F08D30B9F73E9A4698F6CF2C
:102F2000219A2998F3CF229A2A98F0CF239A2B98A6
:102F3000EDCF529A5A98EACF539A5B98E7CFCF9346
:102F4000873050F580910C0190910D01C0E0892BE4
:102F500071F464E670E081E40E94592E90930D01B3
:102F600080930C01892B31F0C0E00E942F2F8C2F11
:102F7000CF91089584E690E00E94E42E97FF05C06B
:102F800090930D0180930C01EFCFC82FC095109244
:102F90000D0110920C01E9CFCFB18FB186958695C6
:102FA0008C73C3708C2BC82FC095E1CF78941F927F
:102FB0001FB61F9211248F939F93AF93BF9380915D
:102FC000BF059091C005A091C105B091C2050196C1
:102FD000A11DB11D8093BF059093C005A093C105AD
:102FE000B093C205BF91AF919F918F911F901FBE6B
:102FF0001F9018952FB7F8948091BF059091C00548
:10300000A091C105B091C2052FBF08950E94FA1783
:103010009C019091FB058091FC05982B21F0309349
:10302000F8052093F7059091FD058091FE05982BFA
:1030300021F03093F5052093F405E091E205F0913D
:10304000E305309749F082E08093F9050480F5812B
:10305000E02D89EF95E0099408951092B80510923B
:10306000B7050E948A0986E0E9EFF5E0DF011D92CD
:103070008A95E9F71092F6051092F3051092C305B0
:103080000E94061890E080E00E94700A90E080E0C4
:103090000C945A0A0E9452126093DC057093DD056D
:1030A0008093DE059093DF050C942D180F931F93EA
:1030B00041E050E060E070E004C0440F551F661F1F
:1030C000771F8A95D2F7CB01BA01609570958095EC
:1030D00090950091DC051091DD052091DE05309181
:1030E000DF0560237123822393231F910F910C949A
:1030F0004A189091B605809589238093B605282FAC
:10310000277071F4282F082E000C330B921713062A
:1031100039F08595859585950E9456181092B605CB
:1031200008950F931F9341E050E060E070E004C009
:10313000440F551F661F771F8A95D2F78091DC05D3
:103140009091DD05A091DE05B091DF058A019B011C
:10315000082B192B2A2B3B2BC901B8011F910F916A
:103160000C944A186093BB057093BC058093BD0511
:103170009093BE050C942D181092B90580911801FA
:10318000E8EAF3E0882359F08091E00587FF07C063
:103190008EE1DF011D928A95E9F70C942D1886E0E7
:1031A000F8CF1F93CF93DF93CDB7DEB7AA970FB6B3
:1031B000F894DEBF0FBECDBF87E396E02091F1000B
:1031C000FC012193CF01F6E08F339F07B9F780917F
:1031D0003806833009F46FC0B8F4813009F446C072
:1031E000823009F4B0C08091E80083FF87C28091EB
:1031F0003706909138069A3008F080C2E92FF0E047
:10320000EA5AFC4C0C945B2F8A3009F48BC08B304B
:1032100009F46EC0893039F780913706813219F789
:1032200080913B0690913C060297E8F68091E80079
:10323000877F8093E8008091E80082FF37C09091FB
:10324000F3008091F200029729F48091F1008B7FC6
:10325000813021F48091F100809312068091E80082
:103260008B778093E8000E948706BDCF8091370658
:10327000813A09F0B8CF8091E800877F8093E80019
:1032800080913B0690913C06892B61F460E283E1DA
:1032900096E070E00E9439078091E8008B77809378
:1032A000E800A1CF60E090E080E0F3CF80913506A8
:1032B0008111C1CF98CF80913706813A09F093CF21
:1032C00080913B0690913C06892B09F08CCF809130
:1032D000E800877F8093E8008091E80080FFFCCFC2
:1032E000809118018093F1008091E8008E77B9CF2A
:1032F00080913706813209F076CF80913B0690911C
:103300003C06892B09F06FCF8091E800877F80937E
:10331000E8000E94870680913906809318010E9478
:10332000BC1861CF80913706813209F05CCF809163
:10333000E800877F8093E8000E94870680913A0624
:103340008093110650CF80913706813A09F04BCF18
:103350008091E800877F8093E8008091E80080FFFB
:10336000FCCF80911106BECF803899F0823809F0E9
:10337000C5C180913B068F70873008F0BFC1809334
:10338000E9008091EB0085FB882780F91092E90025
:1033900006C080913306909134069111826090911D
:1033A000E800977F9093E8008093F1001092F1007D
:1033B0008091E8008E779EC1882309F48CC1823009
:1033C00009F09CC18091390681118FC180913B0623
:1033D0008F702FEF280F263008F090C18093E900FE
:1033E0002091EB0020FF81C1933031F48091EB00FC
:1033F00080628093EB0079C19091EB009061909393
:10340000EB0021E030E001C0220F8A95EAF720931B
:10341000EA001092EA008091EB008860EACF811107
:103420006DC1109139061F778091E3008078812B60
:103430008093E3008091E800877F8093E8000E94FA
:1034400087068091E80080FFFCCF8091E3008068D0
:103450008093E30082E0111183E0809335064EC132
:103460008058823008F04AC18091390690913A061E
:103470008C3D23E09207A1F583E08A838AE2898369
:103480004FB7F894DE01139620E03EE051E2E32FBF
:10349000F0E050935700E49120FF03C0E295EF70F5
:1034A0003F5FEF708E2F90E0EA30C0F0C7968D93AB
:1034B0009D932F5F243159F74FBF8091E800877F9C
:1034C0008093E8006AE270E0CE0101960E9439071D
:1034D0008091E8008B778093E80010C1C096E7CF19
:1034E00040913B0650913C06292F3327233031056C
:1034F00009F445C078F52130310509F47BC08BE330
:1035000090E0E0E3FBE02230310509F0F7C02091C4
:10351000E800277F2093E80020913D0630913E0689
:103520008217930708F49C0140E02115310509F04A
:1035300070C041116EC08091E80082FDC9CF8091BA
:103540003506882329F2853019F28091E80083FF3F
:10355000F2CFBECF2132310509F440C0223231050D
:1035600009F0CCC04115510509F44EC04130510558
:1035700009F0C4C08CEB90E0E4E3FAE0C8CF9927EF
:1035800081309105D9F0009771F082309105F1F00A
:10359000039709F0B3C0EDE7FBE0E4918E2F90E0D4
:1035A000EDE7FBE007C0E7EDFBE0E4918E2F90E054
:1035B000E7EDFBE0009709F4A1C0A9CFE5EAFBE045
:1035C000E4918E2F90E0E5EAFBE0F4CFE3E8FBE046
:1035D000E4918E2F90E0E3E8FBE0ECCF411551053C
:1035E00071F04130510509F089C089E090E0EBE5C8
:1035F000FBE08DCF82E190E0EBE6FBE088CF89E055
:1036000090E0E2E4FBE083CF80E490E0E0EFFAE0DA
:103610007ECF80913506882309F45ACF853009F48E
:1036200057CF8091E80083FD53CF8091E80082FD61
:1036300082CF8091E80080FF78CF9091F300809155
:10364000F2002115310519F08830910550F041E064
:10365000089709F040E08091E8008E778093E800B9
:1036600064CF44914093F100319621503109019685
:10367000E8CF803809F042C08091E800877F8093CE
:10368000E800809136068093F10092CE811136C019
:1036900010913906123090F58091E800877F809371
:1036A000E800109336060E948706112311F084E08B
:1036B00005C08091E30087FDFACF81E08093350655
:1036C00042E061EC81E00E94A60642E261EC82E009
:1036D0000E94A60613C080913906813079F481E0FA
:1036E000933009F080E0809334061092E9008091D5
:1036F000E800877F8093E8000E9487068091E800B9
:1037000083FF0AC08091E800877F8093E800809162
:10371000EB0080628093EB00AA960FB6F894DEBFB0
:103720000FBECDBFDF91CF911F9108951F920F92D1
:103730000FB60F9211242F933F934F935F936F9384
:103740007F938F939F93AF93BF93CF93DF93EF9329
:10375000FF93D091E900DF708091EC00C82FC17019
:1037600080FDC0E81092E9008091F000877F80938F
:10377000F00078940E94D1181092E9008091F00036
:1037800088608093F000CD2BCF70C093E900FF914B
:10379000EF91DF91CF91BF91AF919F918F917F91E9
:1037A0006F915F914F913F912F910F900FBE0F90AE
:1037B0001F9018951F920F920FB60F9211242F93FE
:1037C0003F934F935F936F937F938F939F93AF93A9
:1037D000BF93EF93FF938091E10082FF09C0809136
:1037E000E20082FF05C08091E1008B7F8093E100C1
:1037F0008091DA0080FF24C08091D80080FF20C033
:103800008091DA008E7F8093DA008091D90080FF6A
:10381000A1C080E189BD82E189BD09B400FEFDCF70
:1038200081E08093350680910F06811109C00E94C6
:103830000D060E94D8068091E20084608093E20029
:103840008091E10080FF17C08091E20080FF13C0EB
:103850008091E2008E7F8093E2008091E20080619F
:103860008093E2008091D80080628093D80019BCD8
:1038700085E0809335068091E10084FF2FC0809120
:10388000E20084FF2BC080E189BD82E189BD89B55A
:10389000982F917080FFFBCF8091D8008F7D80930F
:1038A000D8008091E1008F7E8093E1008091E2005A
:1038B0008F7E8093E2008091E20081608093E2003D
:1038C00080913606882309F44BC084E08093350646
:1038D0000E94BC180E94860A109210068091E10096
:1038E00083FF27C08091E20083FF23C08091E10025
:1038F000877F8093E10082E0809335061092360640
:103900008091E1008E7F8093E1008091E2008E7FC4
:103910008093E2008091E20080618093E20042E0C7
:1039200060E080E00E94A6068091F00088608093AD
:10393000F000FF91EF91BF91AF919F918F917F9197
:103940006F915F914F913F912F910F900FBE0F900C
:103950001F90189519BC1092350610920F0670CF63
:103960008091E30087FD93E090933506B1CF8823E3
:10397000B1F19CEF980F913A38F4682F86EA93E002
:103980000E94D8080C948A0990E2980F983088F425
:10399000877021E030E0A90102C0440F551F8A95CD
:1039A000E2F7CA0180959091B90589238093B90502
:1039B000E9CF9BE5980F933020F490E080E00C94E1
:1039C000700A98E5980F973120F490E080E00C940D
:1039D0005A0A803F20F00E949A070C940618089516
:1039E000CF93C82F882309F46EC08CEF8C0F813AD7
:1039F000B8F580911801882311F18091E00587FFC7
:103A00001EC0EC2FE695E695E695F0E0EA55FC4FF2
:103A1000828190E04C2F477021E030E002C0220FFD
:103A2000331F4A95E2F782239323892B89F06C2F69
:103A300086EA93E00E94D8080E948A0909C0E8EA51
:103A4000F3E08191C81799F383E0EE3AF807C9F7DC
:103A50006C2F86EA93E00E940209CF910C948A09A8
:103A600080E28C0F883068F4C77021E030E001C03C
:103A7000220FCA95EAF78091B905822B8093B90588
:103A8000ECCFEBE5EC0FE33040F4F0E0E057FD4F16
:103A9000808190E0CF910C94700AE8E5EC0FE7315B
:103AA00050F4F0E0EE0FFF1FED56FD4F8081918145
:103AB000CF910C945A0AC03F30F08C2F0E946108BD
:103AC000CF910C940618CF910895CF93C82F0E94E0
:103AD000F01CC93349F42FEF87EE93E0215080406A
:103AE0009040E1F700C000008C2FCF910C94B71CE0
:103AF0000F931F93CF93DF93C42FD22FFC018281AA
:103B00008823A1F0409342050E94FA1790932E0556
:103B100080932D05C77081E001C0880FCA95EAF730
:103B2000DF91CF911F910F910C94500A1091420593
:103B3000141335C080912D0590912E050E94C9085F
:103B4000883C910560F5C0E2CD0F1D17B9F080E209
:103B5000810F883040F4177081E001C0880F1A95FA
:103B6000EAF70E94450AC83048F481E09D2F97701B
:103B700001C0880F9A95EAF70E94500A802F0E9490
:103B8000651DC83098F4D77081E001C0880FDA95C0
:103B9000EAF7DF91CF911F910F910C94450AC770FE
:103BA00081E001C0880FCA95EAF7F3CFDF91CF918A
:103BB0001F910F9108954F925F926F927F928F9213
:103BC0009F92AF92BF92CF92DF92EF92FF920F93AC
:103BD0001F93CF93DF9300D000D00F92CDB7DEB705
:103BE0006C01FC0183819481892B39F01081F18073
:103BF000812F8F218F3F09F0D1C60F900F900F902A
:103C00000F900F90DF91CF911F910F91FF90EF9048
:103C1000DF90CF90BF90AF909F908F907F906F90EC
:103C20005F904F9008950E945911082F682F898145
:103C30009A810E94F809E12FF0E026E0F29EE00D63
:103C4000F11D112434E5039FE00DF11D1124EE0F49
:103C5000FF1FE456FA4F05911491F6018281093253
:103C6000FDE51F0709F44BC00A322DE5120709F4E0
:103C7000E0C0023C3CE5130709F001C18823E9F0EC
:103C800090911A018091CA059F3F09F0F1C01092EE
:103C90001A018F7E8093CA0540E060E080E00E94B8
:103CA000E90A4091CA055091CB056091CC0570910D
:103CB000CD058FE090E00E942E318091B60587708F
:103CC00009F49BCFF6018281882309F496CF82E024
:103CD0000F900F900F900F900F90DF91CF911F9149
:103CE0000F91FF90EF90DF90CF90BF90AF909F909B
:103CF0008F907F906F905F904F900C9479188823ED
:103D0000C9F18091CA0591E0980F9770887F95302E
:103D100008F4892B8093CA058091CA058770EFEF5C
:103D20008E9FC00111249595879595958795992724
:103D3000909389008093880090938B0080938A00F1
:103D400090938D0080938C004091CA055091CB05D3
:103D50006091CC057091CD058FE090E00E942E31EE
:103D60006091DC057091DD058091DE059091DF05A5
:103D70000E945212F6018281882309F49DC09801A5
:103D8000215E3C452530310508F096C06FE1600F9B
:103D90006093C6058CE090E00E941C31F601928190
:103DA000992309F40CC6109242050230FCE51F0766
:103DB00008F413C606312CE5120738F098012A5F83
:103DC0003C452730310508F008C60E94A2129093A6
:103DD000E1058093E0050F303CE5130709F4E6C1E7
:103DE00008F060C108309CE5190709F4C9C108F062
:103DF00035C10430FCE51F0709F4B6C108F01BC14A
:103E000002303CE5130709F4A7C103301C4509F44F
:103E1000A7C16091E0051091E10584E090E00E9467
:103E20001C31612F81E290E00E941C310E94BC187D
:103E300044CF882309F49ECF9091CA05892F877FAC
:103E400093FF88608093CA0583FF05C040E060E06F
:103E500080E00E94E90A4091CA055091CB0560912B
:103E6000CC057091CD058FE090E00E942E3182CF7D
:103E70009FEF90931A0180618093CA0512CF0B3295
:103E8000FDE51F0791F00C322DE5120709F072CF06
:103E9000882309F412CF81E00E946A164FEF6FEF7A
:103EA0008BE190E00E941B1608CF882309F405CF10
:103EB00081E00E946A1601CF17FF74C0882309F4BD
:103EC0006DCF8091B905809341051092B90580911D
:103ED000C605813009F441C08823D9F1823009F444
:103EE00049C0843009F44DC08FE39CE90197F1F794
:103EF00000C000005801E894B7F8ECE0EE2EF12C79
:103F000095010E2C02C0369527950A94E2F72F7082
:103F100087E290E029F0822F90E02A30B8F54D96A4
:103F20000E94651D94E0E91AF108ECEFEE16EFEF40
:103F3000FE0631F78091C605813071F1882341F189
:103F4000823031F1843061F1809141058093B9056F
:103F500025CF82EE0E94F01CC7CF83E00E943B0A6F
:103F600088E10E94F01C88E10E94B71C83E00E9457
:103F7000300ABACF82EE0E94F01C87E50E94651DD0
:103F8000B3CF86EE0E94651D88E1F8CF0697C8CFB3
:103F900082EE0E94B71CD8CF8CE20E94651DD4CF60
:103FA00088E2FBCF033FFCE51F0769F1B0F4083D51
:103FB0003CE5130711F1093D8CE51807B1F1073D08
:103FC0009CE5190709F0EACE06E221EE41EE67ED25
:103FD0007CE5C6010E94781D70CE053FECE51E070A
:103FE000F1F0B8F0063F2CE5120709F0D7CE07E252
:103FF00025EE46EE66EF7CE5ECCF07E225EE45EEDA
:1040000068ED7CE5E6CF06E221EE40EE63EF7CE56D
:10401000E0CF07E225EE44EE64EF7CE5DACF06E27E
:1040200021EE42EE65EF7CE5D4CF08E221E045EEDB
:1040300069ED7CE5CECF8091E005806106309CE59E
:10404000190709F447C08091E005886007301C45D6
:1040500008F440C08091E00580623CC00B30FCE574
:104060001F0709F49BC068F409303CE5130709F405
:104070008BC00A301C4509F0CCCE8091E0058C60E5
:1040800029C08091E0058B7F0D309CE5190711F167
:104090008091E0058D7F0E301C45E0F08091E005B9
:1040A000877F18C00A3FFCE51F0709F461C060F56F
:1040B00002313CE5130709F481C078F400319CE536
:1040C000190709F477C08091E0058F7B01311C4509
:1040D00009F09FCE8093E0059CCE0431FCE51F07DC
:1040E00009F47AC008F470C005311C4509F091CE7E
:1040F0008091E00582FB992790F921E0922790FBBF
:1041000082F990FB83F9E6CF0D3F8CE5180709F49F
:1041100049C070F40B3FECE51E0771F18091E10599
:104120008E7F0C3F1C4509F074CE8093E10571CE63
:104130000F3F2CE5120709F44BC060F101151D4536
:1041400009F067CE8091E105982F909591708E7F50
:10415000892B90FB81F9E9CF8091E0058160BACF8E
:104160008091E0058260B6CF8091E0058460B2CF97
:104170008091E1058160D9CF8091E1058260D5CF42
:104180008091E0058064A6CF0E94BC188091E00574
:104190008068A0CF8091E1058360C7CF8091E00562
:1041A0008E7F98CF8091E1058D7FBFCF8091E00514
:1041B0008F7E90CF8091E0058F7D8CCF0E94BC18C0
:1041C0008091E0058F7786CF8091E005837F82CF55
:1041D0008091E1058C7FA9CF0E94BC189091E005E9
:1041E000892F97FB87F9805875CF992309F45CC014
:1041F0008091B9058272F801E25CFC45E431F10579
:1042000008F049C0E05AFC4C0C945B2F80914306A7
:1042100091E089278093430610921C010E94131697
:104220004CCD40E856E169E876E10E94920A45CD1E
:1042300049E856E160E876E1F8CF48E556E161E605
:1042400076E1F3CF41E656E168E576E1EECF40E472
:1042500056E16CE476E1E9CF4CE456E160E476E1C6
:10426000E4CF48E256E164E376E1DFCF44E356E190
:1042700068E276E1DACF4DE956E163E976E1D5CF40
:1042800043E956E16DE976E1D0CF85E012CE8DE0CD
:1042900010CE82E10ECE0115ECE51E0709F44EC0EA
:1042A0000E3D1C4509F487C0F60100811181992358
:1042B00009F484C0C8010E945911F82E682FC80162
:1042C0000E94F809B8018F2D0E94B60F082FF92E11
:1042D000B82EF601E580E2947FE0E7221281111109
:1042E0001092B8058091B6058770C1F01123B1F026
:1042F0008F2D807F803449F090E2900F983070F0DD
:10430000803619F4F6EFBF1649F082E00E94791862
:104310008091B6058770AA24A3948111A12C9F2CAB
:1043200092945FE095226BE0462E491408F481C018
:10433000E92DF0E0EC58FC4C0C945B2F0E94BC186B
:104340002FEF34E38CE0215030408040E1F700C093
:104350000000F89481E08093E00080E28093D80030
:104360001092C900EFE1FEE43197F1F700C00000C0
:104370001DBA109268001CBC10BE1FBA10927A00C1
:1043800010926E0010926F001092710010927200E5
:104390001092C9001092BC0014B817B81AB81DB812
:1043A00010BA1092BC0015B818B81BB81EB811BAD4
:1043B0000C94003F82CC0E94C6137FCCC8010E949F
:1043C000CF09F82E7FCF2F2D2F70E22E8F2D807FDB
:1043D00019F0E29440EFE4221123C9F0EE2069F0D5
:1043E00080E2800F883010F0B1100BC08091B905C9
:1043F000E82AE092B9050E948A09802F0E94F01CE9
:1044000018C08091B805E82AE092B805F4CF802F53
:104410000E94B71CEE2069F0E094005E083010F0B6
:10442000B11057C08091B905E822E092B9050E9409
:104430008A09292D2850330B2430310510F40E94AD
:10444000860A112379F08F2D807F803619F436EF9C
:10445000B31641F080914405823009F097C283E0A1
:1044600080934405AA20A9F08091B60580FD11C073
:10447000F60112828595859585950E949118C60151
:104480000E94DB1D8091B6058595859585950E94D6
:10449000561885E0F601DE01119601900D928A957D
:1044A000E1F789819A810E94CF099A81E981F0E040
:1044B00026E0929FE00DF11D112434E5839FE00D6D
:1044C000F11D1124EE0FFF1FE456FA4F85919491D0
:1044D00094CB8091B805E822E092B805A8CF3F2D93
:1044E0003F70832E8F2D807F803219F0829430EFC1
:1044F0008322BB2041F081E0B81631F1112381F114
:10450000EE2049F17ACF112391F09091BA05892FCD
:104510008829E11003C00E94500A8BCFE1E0EE121F
:10452000FACF981709F485CF8093BA0582CFE110AE
:1045300006C00E948409882D0E94450A7ACFF1E0C6
:10454000EF1609F476CFF5CF112339F044244394C4
:104550004E1408F46ECF882DDECFE1106ACFEBCF7A
:10456000EE2049F329E3522EB51009C02FEF37EEA4
:1045700083E0215030408040E1F700C00000802FF0
:104580000E94B71C56CF8F2D86958695837069F053
:10459000813009F04ECF802F9F2D9370111102C0F2
:1045A00090E080E00E945A0A44CF802F9F2D9370A4
:1045B000111102C090E080E00E94700A3ACF802F73
:1045C000112329F00E9461080E94061832CF0E9430
:1045D0009A07FACF8F2D837009F067C0111129CF88
:1045E000202F229526952770220F220F402F4F70E3
:1045F00050E070E060E0022E04C0440F551F661FBB
:10460000771F0A94D2F780E090E0DC0104FF0FC02E
:104610008FE090E0A0E0B0E004C0880F991FAA1FCF
:10462000BB1F2A95D2F780959095A095B0952F2D18
:10463000269526952370223029F1D8F44090BB05A9
:104640005090BC056090BD057090BE05213069F0AA
:10465000842B952BA62BB72BBC01CD016421752192
:10466000862197210E94B218E4CE44295529662953
:1046700077292A013B01482A592A6A2A7B2AC30141
:10468000B201F0CF842B952BA62BB72B4090BB0506
:104690005090BC056090BD057090BE05BC01CD0179
:1046A0006425752586259725DDCF8695112311F084
:1046B0008F2D8170882309F4BCCE202F229526955A
:1046C0002770220F220F402F4F7050E070E060E003
:1046D000022E04C0440F551F661F771F0A94D2F79D
:1046E00080E090E0DC0104FF0FC08FE090E0A0E0EC
:1046F000B0E004C0880F991FAA1FBB1F2A95D2F7EC
:1047000080959095A095B0952F2D26952695237090
:10471000223029F1D8F44090DC055090DD056090FE
:10472000DE057090DF05213069F0842B952BA62BD8
:10473000B72BBC01CD0164217521862197210E94F0
:104740004A1877CE44295529662977292A013B0141
:10475000482A592A6A2A7B2AC301B201F0CF842B46
:10476000952BA62BB72B4090DC055090DD05609073
:10477000DE057090DF05BC01CD0164257525862519
:104780009725DDCF2F2D2F70E22E112329F0822FB8
:104790000E949118802FBFCE802F0E94450A8E2D37
:1047A0000E94561846CE802F32EFB31609F452C03D
:1047B0003B1578F090EFB91629F1E1EFBE1609F438
:1047C00041C0112309F46AC0E11017CE8F2D8F71FB
:1047D0003EC0F3EFBF1609F442C094EF492EB41067
:1047E000F0CF112309F44FC00F2D0F71802F0E94BD
:1047F000911828E0029FC001112483608093B605C0
:10480000802F25C01123C1F0E11013CE2F2D2F7161
:1048100061E070E080E090E004C0660F771F881FC1
:10482000991F2A95D2F74090DC055090DD056090E5
:10483000DE057090DF05A1CF552453945E1408F473
:10484000F8CDE4CF8F2D8F71112309F4A9CF0E94E9
:104850009118EFCD8F2D8F711123C9F3A1CF60E097
:1048600070E0CB01112309F46ACF2F2D2F7161E085
:1048700070E080E090E004C0660F771F881F991FEA
:104880002A95D2F75CCF81E00E94791831E03E157D
:1048900008F0CFCD82E00E947918CBCDEE2059F000
:1048A000893309F06CCE8FEF97EEE3E081509040B2
:1048B000E040E1F762CE8F2D8F7172CFE0E1E00F23
:1048C000E73008F03EC0F0E0E058FC4C0C945B2F61
:1048D000112309F4AECD8091460591E0892780939C
:1048E0004605A7CD10934605A4CD81E08127F7CFDB
:1048F00011119FCD81E0F3CF11119BCD1092460590
:1049000098CD112321F082E080934405F3CF80916C
:104910004405823021F481E0809344058ACD8330C0
:1049200009F087CD10924405E9CF112339F0809129
:104930004505882381F2109245057BCDEE2059F282
:1049400078CD80914505EE20A9F0882341F0809133
:10495000460591E089278093460510924505802FF2
:1049600011114CCD0E94B71C86E0F60111928A9578
:10497000E9F75FCD882309F45CCD11115ACD809100
:10498000460591E0892780934605D5CF813009F00F
:1049900069CD109244051092460564CD85E0DE0194
:1049A000119601900D928A95E1F7F6012281898195
:1049B0009A81211138C90E94CF09082F3CC90631BC
:1049C0001C4509F071CC8091430569E2811165E3D2
:1049D00086EA93E00E94D80814C006312CE512073D
:1049E00009F003CC8091B9058A7A91E009F490E04E
:1049F0009093430569E2811165E386EA93E00E94A2
:104A000002090E948A0959C91F93CF93DF938091AD
:104A10004C05807FA9F480914905882389F0809115
:104A20007E05D0914D056091470570914805A09194
:104A30004A05B0914B05C62FC72316E0D81304C012
:104A4000DF91CF911F91089590E0109711F0CF3F23
:104A500019F401968770F2CF189F9001199F300DBD
:104A60001124F901E25BFA4F41814713F2CF4081F3
:104A70004613EFCF42814111ECCF438154814A1B51
:104A80005B0B483C510528F780914C058F70806185
:104A900080934C05F901ED5AFA4F80818F70806147
:104AA000808387E495E00E94DB1DDF91CF911F9109
:104AB0000C94260AAF92BF92CF92DF92EF92FF92B0
:104AC0000F931F93CF93DF93CDB7DEB761970FB6E8
:104AD000F894DEBF0FBECDBF8C0185E0F801DE018A
:104AE0001D9601900D928A95E1F7F80180819181E0
:104AF000E28027E4A22E25E0B22E60914A05709153
:104B00004B056115710509F43EC13091470540918F
:104B10004805232F24232F3F09F435C1C380D480B7
:104B2000F0904905F601E61BF70BFF2009F4FBC0E6
:104B300020914C05522F507FE83CF10508F0BBC096
:104B4000511178C0FE2C491321C038131FC0E11049
:104B50001DC02F70206120934C05C5010E94DB1DF4
:104B600080914C05F80185838F2D61960FB6F894DE
:104B7000DEBF0FBECDBFDF91CF911F910F91FF9090
:104B8000EF90DF90CF90BF90AF900895CD2829F09F
:104B9000282F29232F3F09F022C120E0F22FF170A6
:104BA000DF2E20FF3DC020917E0540914D0556E04F
:104BB000241315C08D879E878D859E850E949B112D
:104BC000292F22952F702230F8F0243020F59F7085
:104BD000F9F0F8019581907FD9F4D12C1FC030E015
:104BE000529FF001539FF00D1124E25BFA4F618157
:104BF000961306C06081861303C06281E61210C05E
:104C00002F5F3F4F2770D4CF9F7011F0882329F377
:104C1000805E883010F3C8010E94DB1DFD2CA4CFFC
:104C2000EE2009F4A1CF80914C05816080934C0562
:104C3000F12C9ACF491312C0381310C0E1100EC0E6
:104C4000F8012583C8010E94DB1D86E0F801A7E476
:104C5000B5E001900D928A95E1F786CF8D879E870A
:104C60008D859E850E94A511882309F1EE20F9F01B
:104C700080914C05803270F02091470530914805B5
:104C800038872F831986DB86CA868C87CE010796E4
:104C90000E94DB1D86E0F801A7E4B5E001900D92CB
:104CA0008A95E1F70E940425FF24F3945DCFC801A3
:104CB0000E94DB1DF9CF51110AC087E495E00E94E4
:104CC000DB1D86E0F50111928A95E9F7B1CF491312
:104CD0000FC038130DC0E1100BC0F8012583C801C7
:104CE0000E94DB1D86E0F50111928A95E9F73CCF21
:104CF0008D879E878D859E850E94A5118823B9F298
:104D0000EE20A9F280914C05803220F220914705D7
:104D1000309148053A8329831B82DD82CC828E83C1
:104D2000CE010196B5CFE83CF105E0F6FE2CEE2071
:104D300009F4BDCF491316C0381314C080914C0537
:104D400080FD83CF982F907F09F47FCFF801858372
:104D5000903F09F477CF982F907F905F8F70892BC9
:104D6000858370CF8D879E878D859E850E94A51136
:104D7000811190CF80914C05816080934C05C801D2
:104D80000E94DB1DF1CEEE2009F491CF8D879E8726
:104D90008D859E850E94A511F82E882309F487CF62
:104DA00086E0F801A7E4B5E001900D928A95E1F75D
:104DB00080914705909148050E949B1192959F70A4
:104DC000963051F4863F41F08091460591E0892765
:104DD00080934605909345050E940425C5CE21E0A9
:104DE0002E25DCCE1F93CF93DF93CDB7DEB7679729
:104DF0000FB6F894DEBF0FBECDBF6D8B7E8B8F8B51
:104E00008E899F89892BE1F0852F84238F3F09F0BC
:104E100098C05FEF4FEF14C030914605332309F47B
:104E20004EC0E42FF0E036E0539FE00DF11D112459
:104E3000EE0FFF1FE851FE4F40815181822B8C9372
:104E40001A8A198A4B8B5C8B85E0FE017396DE0112
:104E50001D9601900D928A95E1F786E0FE013D9640
:104E6000DE01179601900D928A95E1F7CE01079623
:104E70000E945A25811112C086E0FE013796DE019C
:104E8000119601900D928A95E1F78A859B85892B71
:104E900029F08F81988589238F3FC9F516E080918D
:104EA0007E0590914D05891320C067960FB6F89442
:104EB000DEBF0FBECDBFDF91CF911F9108958095CA
:104EC0008223BDCF96E0929FD001939FB00D112415
:104ED000A25BBA4FFE01319601900D929A95E1F7CF
:104EE00080934D050E94260AD9CF819FC0011124CD
:104EF000825B9A4F0E945A258823B9F280917E05E1
:104F000090E001968770992780937E05C8CF209105
:104F10004D0530E0C90101968770992740917E05C3
:104F20004817190679F60E94BC1810924D05109288
:104F30007E0586E0E7E4F5E0DF011D928A95E9F75A
:104F4000ADCF81E090E0042E01C0880F0A94EAF70B
:104F5000A52FB0E0AD5CBA4F2C913D8931115CCFEB
:104F6000322F38235BCF7F928F929F92AF92BF9266
:104F7000CF92DF92EF92FF920F931F93CF93DF9325
:104F800080910C0190910D01892BA1F08091C703B4
:104F90008F5F8093C70381110DC00E94D41690E0EB
:104FA00090930D0180930C01892B21F40E944C13E6
:104FB0000E94B816EEEC8E2EE5E09E2E640100E015
:104FC00010E077E0E72EE10E812F0E944B178E2D27
:104FD0000E944B17812F0E949F17E60199916E0145
:104FE000F12C891729F0FE0131978083FF24F39477
:104FF0008E2D0E949F17F6019681891709F47AC0B9
:10500000868381E08F29082B0E9486121F5F17304C
:10501000C1F60E94FA176091C9037091CA03909378
:10502000CA038093C9032091C80330E0261B370BC5
:10503000820F931F6BEF70E00E94332FE82E392F01
:10504000182F8093C803F090CC03FF2009F408C305
:105050001092CC03E091C405F091C505AF01425F09
:105060005F4F20E06BEFB62E6BEF70E0A191AB3F8E
:1050700099F0CA2ED12C8E2D932F1A17E8F18C1986
:105080009D09092E000CAA0BBB0BC297A105B10507
:10509000C8F1DF011197BC924E175F0739F72093D3
:1050A000CC03011102C02111DDC21092CB03A091EB
:1050B000C405B091C5059091CC03E5EEF5E080E024
:1050C0003191E40129914E01321751F03C913B3F5F
:1050D000D9F41C93AF0141505109EA01288391E0B2
:1050E0001196D5E0E33FFD0759F79093CC038093E9
:1050F000CB03BCC280E086CFDB01AC19BD098A0FAF
:105100009B1FBFCF2F2DC8CF81E0EACF109219018E
:1051100040933F06509340066093410670934206C9
:1051200081E080931C01F110D6C28091CA0583FDF5
:10513000D2C26091DC057091DD058091DE05909111
:10514000DF050E943709833009F481C208F06EC27E
:10515000813009F474C2823009F476C280911A0158
:105160008111B9C240E060E00E94E90AB4C28091B6
:105170000B01C1E018130BC02091430623708091EE
:105180000A0190E0C1E02817190609F4C0E0C170D7
:10519000C0931B01193140F4E12FF0E0E957FC4CBA
:1051A0000C945B2FC11102C0C0E068C040E060E019
:1051B00080E00E94E90AF8CF80911901C82FCC0F36
:1051C000CC0FC80F45E0E42EEC0EDE2CE0E3EE152C
:1051D00010F430E3D32E609144067091450680911F
:1051E00046060E945A0DC62EB72EA82ED0E0CD1529
:1051F00030F0C1E02FE22E1508F040C0D5CFFE01FF
:10520000EB58FC4F808190911A01892331F02A2DAF
:105210004C2D6B2DCE010E94EB0A2196E8CF809198
:105220001901C82FCC0FCC0FC80F25E0E22EEC0ED1
:10523000DE2C30E33E1510F490E3D92EB0904506F5
:10524000C0904606D09144066D2F7B2D8C2D0E9478
:105250005A0DA62E972E882E609147066D0F7B2D36
:105260008C2D0E945A0DC62EB72E782ED0E0CD156B
:10527000C8F0C1E09FE29E1508F496CF8091190115
:105280008F5F80931901C1111FC282E080931C01BE
:1052900080911B01811118C2111116C283E0809305
:1052A0001C0112C2FE01EB58FC4F908180911A0143
:1052B000892359F0272D4C2D6B2D90FD03C0282DEF
:1052C0004A2D692DCE010E94EB0A2196D0CF809104
:1052D0001901C82FCC0FCC0FC80F85E0E82EEC0EBB
:1052E000CE2CD0E3DE1510F4D0E3CD2EB0904506E1
:1052F000A090460620914706B0E4DB2E3D2D329F5C
:10530000312D1124D32ED0E0CC1508F0B2CFFE0100
:10531000EB58FC4F808190911A018923B9F0FE016E
:10532000EE0FFF1FEA5EFC4F808182958F706091C7
:1053300044068D9D600D11247B2D8A2D0E945A0DEF
:10534000462F282F672FCE010E94EB0A2196DCCF33
:1053500080911901C82FCC0FCC0FC80FE5E0EE2EBD
:10536000EC0ECE2CD0E3DE1510F470E3C72EB09017
:105370004506A09046062091470660E4D62E3D2DB6
:10538000329F312D1124D32ED0E0CC1508F071CFEF
:10539000FE01EB58FC4F808190911A018923D9F0CE
:1053A000FE01EE0FFF1FEB5EFC4F6081D69EB00149
:1053B000112455E0759567955A95E1F7809144065B
:1053C000680F7B2D8A2D0E945A0D462F282F672F9C
:1053D000CE010E94EB0A2196D8CF80911901C82FE7
:1053E000CC0FCC0FC80F35E0E32EEC0EDE2CD0E353
:1053F000DE1510F420E3D22EC0904406D09145066D
:10540000B0904606609147066695669566958091D0
:105410003F06909140060E94500D0E94D90C805882
:1054200087FD8195880F282F3B2D239F212D112447
:10543000822F6C2D7D2F0E945A0DC62EB72EA82EBE
:10544000D0E0CD1508F015CFFE01EB58FC4F808160
:1054500090911A01892331F02A2D4C2D6B2DCE010C
:105460000E94EB0A2196EDCF84EE9BE00E94290F6B
:10547000C82F04CF8AEB9BE0F9CF8BEB9CE00E9416
:10548000CD0EF6CF8CE99CE0FACF81E89CE00E943B
:10549000500EEECF85E69CE0FACF88EB9BE0E6CF9E
:1054A0008FEA9BE0E3CF86EA9BE0E0CF8DE89BE0CC
:1054B000DDCF8FE79BE0EBCF88E29DE0E0CF84E596
:1054C0009CE0DDCF80E49CE0E2CF82E59BE00E949F
:1054D000EE0DCECF84E29BE0FACF8DEE9AE0F7CFCF
:1054E000C1111EC06091470620E1620F08F46FEF02
:1054F00080913F06909140060E94500D6AE070E056
:105500000E94332F892B09F04FCE0E94AD2F60E30C
:1055100070E00E94472F60911A010E94CD15AECE17
:1055200080911901C82FCC0FCC0FC80F95E0E92E40
:10553000EC0E8E2DD0E3DE1508F480E3D0E0C82E0B
:10554000D12CCC15DD0534F0C1E0EFE2EE1508F00A
:1055500095CE2ACE60911A01CE010E94CD152196DA
:10556000F0CFC1111EC06091470620E1620F08F420
:105570006FEF80913F06909140060E94500D65E0CC
:1055800070E00E94332F892B09F00ECE0E94AD2FC0
:1055900060E370E00E94472F60911A010E94AB15F2
:1055A0006DCE80911901C82FCC0FCC0FC80F85E0AC
:1055B000E82EEC0E8E2DF0E3FE1508F480E3D0E02B
:1055C000C82ED12CCC15DD050CF013CE60911A013C
:1055D000CE010E94AB152196F5CF10930B0180915F
:1055E0004306837080930A010E945F1457CE409156
:1055F0003F065091400660914106709142062FB7D8
:10560000F8948091BF059091C005A091C105B0911B
:10561000C2052FBF841B950BA60BB70B4A97A1059C
:10562000B10508F451C010921C014EC08530A9F09C
:1056300088F0863009F092CD86E090E002C081E0EB
:1056400090E00E94C91147C082E090E0FACF83E069
:1056500090E0F7CF84E090E0F4CF85E090E0F1CFE8
:10566000011123CD8091CB0381111FCD8FB7F89409
:105670004091BF055091C0056091C1057091C20570
:105680008FBF4093CD035093CE036093CF037093AD
:10569000D003F090100610E0F11008C0809143068E
:1056A000182F137019F0182F1695169580911C015C
:1056B000813009F45CCD882309F428CD823009F4C7
:1056C0008CCF833009F493CFF11005C08091100680
:1056D000882309F42ACD802FDF91CF911F910F915C
:1056E000FF90EF90DF90CF90BF90AF909F908F9002
:1056F0007F900895CDB7DEB760970FB6F894DEBF00
:105700000FBECDBF84B7877F84BF0FB6F894A8952E
:1057100080916000886180936000109260000FBEED
:1057200080E890E00FB6F894809361009093610058
:105730000FBE85B7806885BF85B7806885BF0E942A
:105740000D060E94D8068091E20084608093E200FA
:105750007894809135068823A1F01091E9001F709C
:105760009091EC00892F817090FD80E8182B1092A9
:10577000E9008091E80083FD0E94D1181F7010930A
:10578000E90082E084BD93E095BD9AEF97BD8093D8
:105790006E000E94D41690E090930D0180930C014E
:1057A0000E9486120E949512EEECF5E08CED95E0D9
:1057B000A5EEB5E011921D928E179F07D9F78EE0E6
:1057C00090E00E94BD2F8093C4059093C505FC0115
:1057D0000E962BEF21938E179F07E1F790E080E064
:1057E0000E9406318F3E9E4F11F00E94C6130E9408
:1057F000B8168CE090E00E94F83090E0B0E0A0E0B5
:105800008093C6059093C705A093C805B093C905BA
:1058100089EA8093800089E08093810024982C9805
:105820003F988AB18F7C8AB96E98479A8BB1806312
:105830008BB9769A8FE090E00E9400316093CA05A0
:105840007093CB058093CC059093CD0567708FEF57
:10585000869FB00111247595679575956795772793
:10586000709389006093880070938B0060938A0026
:1058700070938D0060938C009091CA0594FF52C183
:1058800080931A010E944C1390E080E00E94063140
:105890008F3E9E4F11F00E94C61382E090E00E945E
:1058A000F830809300060E94A2129093E105809345
:1058B000E00583E090E00E94F830682F70E090E00F
:1058C00080E00E94B2186091DC057091DD05809146
:1058D000DE059091DF050E9452120E94DC0A0E94B0
:1058E000DC0A0E9413168EE091E09093E30580930A
:1058F000E205BB24B394AA24AA9483EFE82E85E0A2
:10590000F82E90E1992E22E1822E38E1C32ED12C7F
:1059100040E4742E80913506853009F406C10E945A
:10592000B327E1E0F6E0A5EEB5E010E000E0302FAF
:105930008D912191281709F451C190E06624639458
:105940002827422F462109F444C19F8338878621A6
:1059500091E009F490E099870E94FA178160782F0E
:105960009B878A874F81588569858B850E94F2269F
:10597000F801EF5FF94F80816826608286E0E9EFE9
:10598000F5E0DE01119601900D928A95E1F76090A5
:10599000FB055090FC051091FD050091FE0510924D
:1059A000FB051092FC051092FD051092FE05862D58
:1059B000852909F448C08091F7059091F8050E9467
:1059C000C9089C019091F605992309F441C12A3038
:1059D0003105C8F19F3F19F09F5F9093F60566204F
:1059E00059F00E943D089FEF16140CF491E0899F36
:1059F000802D11248093FB05552059F00E943D080D
:105A00009FEF15140CF491E0899F802D1124809351
:105A1000FC053091FB053323B1F02091FC052223D6
:105A200091F045EB3403C0011124992309F4ECC033
:105A30009093FB0545EB240390011124332309F4D3
:105A4000E6C03093FC05812F802B09F448C080917B
:105A5000F4059091F5050E94C9089C019091F30509
:105A6000992309F4F1C02A303105C8F19F3F19F09C
:105A70009F5F9093F305112359F00E941D089FEF3B
:105A800011160CF491E0899F802D11248093FD055F
:105A9000002359F00E941D089FEF10160CF491E0AE
:105AA000899F802D11248093FE053091FD053323BD
:105AB000B1F02091FE05222391F045EB3403C001A3
:105AC0001124992309F4A6C09093FD0545EB240306
:105AD00090011124332309F4A0C03093FE05809176
