:100000000C94F6050C9413060C9413060C9413062A
:100010000C9413060C9413060C9413060C941306FC
:100020000C9413060C9413060C9424180C94B41C12
:100030000C94C52E0C9413060C9413060C94130602
:100040000C9413060C9413060C9413060C941306CC
:100050000C9413060C94FB180C9413060C941306C2
:100060000C9413060C9413060C9413060C941306AC
:100070000C9413060C9413060C9413060C9413069C
:100080000C9413060C9413060C9413060C9413068C
:100090000C9413060C9413060C9413060C9413067C
:1000A0000C9413060C9413060C9413060501098096
:1000B000A101850319012AB700150126B700950192
:1000C00075108100C0050C0901A101850419012AE0
:1000D000A002150126A002950175108100C005013E
:1000E0000906A1018505050719E029E71500250185
:1000F0009508750181020507190029EF15002501F2
:1001000095F075018102050819012905950575010C
:100110009102950175039101C005010902A1010930
:1001200001A100050919012905150025019505758D
:10013000018102950175038101050109300931151D
:1001400081257F95027508810609381581257F95DF
:100150000175088106050C0A38021581257F950175
:1001600075088106C0C005010906A101050719E04F
:1001700029E715002501950875018102950175088B
:1001800081010507190029FF150026FF0095067556
:100190000881000508190129059505750191029549
:1001A0000175039101C00000000000000000000084
:1001B000000000000000000000000000000000003F
:1001C000000000000000000000000000000000002F
:1001D000000000000000000000000000000000001F
:1001E000000000000000000000000000000000000F
:1001F00000000000000000000000000000000000FF
:1002000000000000000000000000000000000000EE
:1002100000000000000000000000000000000000DE
:1002200000000000000000000000000000000000CE
:1002300000000000000000000000000000CCFF00F3
:10024000000000000000000000000000000086FF29
:10025000D586FFD500000000000000000086FFD515
:1002600086FFD500000000000000000086FFD58654
:10027000FFD50000000000000000000000000000AA
:100280000000000000CCFF000000000000000000A3
:1002900086FFD586FFD50000000000000000008624
:1002A000FFD586FFD500000000000000000086FF9B
:1002B000D586FFD50000000000000000000000000F
:1002C000000000000000000000000000000000002E
:1002D000000000000086FFD586FFD586FFD586FF8B
:1002E000D50000000AE1FF0AE1FF0AE1FF0AE1FF91
:1002F00000000000000000000000000000000000FE
:1003000000000AE1FF000000000000000000000003
:1003100000000000000000000000000000000000DD
:100320000000000AE1FF0000000000000000000AD9
:10033000E1FF0AE1FF0AE1FF000000000000000009
:10034000000000000000000000000AE1FF000000C3
:10035000000000000000000000000000CDFFAE0023
:10036000000000000086FFD586FFD586FFD586FFFA
:10037000D50000000EDEF20EDEF20EDEF20EDEF230
:10038000000000000000000000000000000000006D
:10039000000000000000000000000000000000005D
:1003A00000000000CDFFAE000000000000000000D3
:1003B00086FFD50EDEF286FFD50000000000000E9D
:1003C000DEF20EDEF20EDEF20000000000000000A1
:1003D000000000000000000000000000000000001D
:1003E000000000000000000000000000000000000D
:1003F00000000000000000000000000000000000FD
:1004000000000000000000000000000000000000EC
:1004100000000000000000000000000000000000DC
:100420000000000000000000000000000000F3DEFB
:10043000EA000000000000000000000000000000D2
:1004400000000055CB9EF3DEEAF3DEEA0000000078
:10045000000000000000000000000000000000009C
:10046000000000000000000000000000000000008C
:10047000000000000000000000000000000000007C
:10048000000000000000000000000000000000006C
:10049000000000000000000000000000000000005C
:1004A000000000000000000000000000000000004C
:1004B000000000000000000000000000000000003C
:1004C000000000000000000000000000000F61ECD0
:1004D0000F61EC0F61EC0F61EC0F61EC0F61EC0F41
:1004E00061EC0F61EC0F61EC0F61EC0F61EC0F61DF
:1004F000EC0F61EC0F61EC0F61ECFA9FFFFA9FFFCC
:1005000000000000000000000000000000000000EB
:1005100000000000000000000000000000000000DB
:1005200000000000000000000000000000000000CB
:1005300000000000000000000000000000000000BB
:1005400000000000000000000000000000000000AB
:1005500000000000000000000000000000FA9FFF03
:10056000FA9FFFFA9FFFFA9FFFFA9FFFFA9FFFFA99
:100570009FFFFA9FFFFA9FFFFA9FFFFA9FFFFA9FE4
:10058000FFFA9FFFFA9FFFFA9FFF1B7EFF1B7EFF74
:100590000000000000000001010101010101010152
:1005A0000202020202020202020303030303030324
:1005B00003040404040404040505050505060606F1
:1005C0000606070707070708080808090909090AAE
:1005D0000A0A0B0B0B0C0C0C0D0D0D0E0E0E0F0F53
:1005E0000F101011111112121313141415151616E1
:1005F0001717181819191A1A1B1B1C1D1D1E1E1F50
:100600002020212222232424252626272829292A9E
:100610002B2C2D2D2E2F30313232333435363738C6
:10062000393A3B3C3D3E3F404142434445464748C2
:10063000494A4C4D4E4F50515354555658595A5B98
:100640005D5E5F616264656668696B6C6D6F707238
:10065000737577787A7B7D7E8082838587888A8CA4
:100660008E8F91939596989A9C9EA0A2A3A5A7A9D8
:10067000ABADAFB1B3B5B7BABCBEC0C2C4C6C9CBCF
:10068000CDCFD1D4D6D8DBDDDFE2E4E7E9EBEEF085
:10069000F3F5F8FAFDFF35002B002961E100E000D9
:1006A00000001E00140004001D00010028001F00AF
:1006B0001A0016001B004C00025120000800070021
:1006C0000600E2002A6821001500090019002C002C
:1006D0000353220017000A000500000050000453D5
:1006E000000F0000050100004F000253000F000042
:1006F0002E000000510023001C000B001100000020
:100700005200240018000D0010002C0001002500EC
:100710000C000E003600E6002878260012000F00BC
:1007200037004C0001542700130033003800E40068
:100730002A002D00310034612E7203540000450060
:1007400001002900E100010000003A000100010061
:1007500001000100C75C3B00010001000100010035
:1007600001003C0026022F022F00010001003D0085
:10077000270230023000010001003E0001000100AC
:10078000010000002B5D01000100000001000000DD
:10079000C45C01000100000001000000C35C3F00D8
:1007A00001000100010000002C5D4000010001007B
:1007B00001000100CA5C41000100010001000100CC
:1007C0000100420026022F022F0001000100430019
:1007D0002702300230000100CB5C440045000100DC
:1007E0000100010000000100010001000100010002
:1007F00000000100010001000100010001000100F2
:100800000100F2000100010001000100F000F10010
:1008100001000100F50001000100F3000100F400F7
:100820000100010001000100010000005100010071
:10083000010000000100000052000100F90000006A
:10084000FA00000001000100000FF200FD000000AE
:10085000010001000100F100FE00F50001000100AF
:100860000100F000FF000100F40001000100F300AE
:100870000100010001000100010001000100010070
:100880000100010001000100010001000000010061
:10089000010001000100010000003A000100010018
:1008A00001000100CB5C3B000100010001000100E0
:1008B00001003C0026022F022F0001004A003D00EB
:1008C000270230023000010001003E00010001005B
:1008D00001000000C45C01000100000001000000F4
:1008E0002C5D01000100000001000000C35C3F001E
:1008F0004A005000010000002D5D40004E005100F4
:1009000001000100C65C41004B00520001000100E3
:100910004D0042004D004F00010001000100430066
:100920000100010001000100C75C44004500010016
:1009300001000100000001003E0001000100010073
:1009400000003A003F0001000100010001003B00EF
:10095000400001000100010001003C0041000100D5
:100960000100010001003D004200440001000100BF
:1009700001003E00430045000100000001000100AD
:100980000100000001000000010001000100000062
:100990000100000001000100010001000100000051
:1009A000010001000100010001000100010001003F
:1009B000010001000100010001000100010001002F
:1009C000010001000100010001000100010001001F
:1009D0000100010001000100010001000000010010
:1009E0002B002900E10001000000010014000400B8
:1009F0001D000100010001001A0016001B0001008B
:100A00000654010008000700060028002A00010023
:100A10001500090019002C000100010017000A0050
:100A200005000000010001000100000001000000BD
:100A300001000100010000000100000001000100B0
:100A4000010001000100000001000100010001009F
:100A5000010001000100010001000100010001008E
:100A6000010001000100010001000100010001007E
:100A7000010001000100010001000100010001006E
:100A800001000100000001002B002900E500010029
:100A9000000001001C000B0011000100010001001A
:100AA00018000D0010000100010001000C000E00F4
:100AB000850028002A00010012000F0063002C00AE
:100AC0000100010013003300540000000100010088
:100AD0000100000001000000010001000100000011
:100AE0000100000001000100010001000100000000
:100AF00001000100010001000100010001000100EE
:100B000001000100010001000100010001000100DD
:100B100001000100010001000100010001000100CD
:100B200001000100010001000100010000000902B4
:100B30005400030100A0FA090400000103010100B0
:100B40000921110100012240000705810308000A64
:100B50000904010001030102000921110100012221
:100B60004D000705820308000A0904020001030082
:100B70000000092111010001226D000705830320F7
:100B8000000A1201100100000008973276490100A6
:100B90000102000120034500720067006F0044005D
:100BA0006F007800200045005A00200047006C00CC
:100BB0006F007700000030035A005300410020000E
:100BC00054006500630068006E006F006C006F00E9
:100BD0006700790020004C00610062007300200073
:100BE00049006E00630000000403090411241FBEC5
:100BF000CFEFDAE0DEBFCDBF26E0A4EBB3E001C06B
:100C00001D92AA35B207E1F713E0A0E0B1E0E2E7F8
:100C1000F8E602C005900D92A43BB107D9F70E94F7
:100C2000042C0C94D8330C940000E8EDF0E08081A3
:100C30008E7F80831092E2001092DA001092E10021
:100C4000A0EEB0E08C9181608C9380818F7780835F
:100C500019BCA7EDB0E08C918E7F8C9380818F7E44
:100C6000808310921B0608952091E4003091E500E6
:100C700095E6A9012091EC00822F817020FF06C02B
:100C80008091E80080FF06C080E008952091E80090
:100C900022FD1AC080914006882389F0853089F0B2
:100CA0008091EB0085FD0FC02091E4003091E500BC
:100CB00042175307F9F29150E1F684E0089582E07B
:100CC000089583E0089581E00895EF92FF920F93D5
:100CD0001F93CF937C018B010E943406C82F811192
:100CE00017C08091E80085FD0BC08091E8008E77E9
:100CF0008093E8000E943406882399F3C82F08C027
:100D0000F70181917F018093F1000150110949F7AA
:100D10008C2FCF911F910F91FF90EF9008958091AC
:100D2000420687FF13C08091E80082FF06C08091D1
:100D3000E8008B778093E80004C080914006811121
:100D4000F2CF0895809140068823D9F38091E8007E
:100D500080FFF8CF8091E8008E77ECCF982F9093AA
:100D6000E900242F762F50E0891731F07091EC00C4
:100D70002091ED005091F00021FD07C09F5F97305A
:100D800071F78093E90081E008953091EB003E7F98
:100D90003093EB003091ED003D7F3093ED003091CA
:100DA000EB0031603093EB007093EC002093ED008A
:100DB0005093F0002091EE0027FDE0CF80E00895F1
:100DC000CF92DF92EF92FF920F931F93CF93DF9317
:100DD000C8EDD0E088818F7E8883E7EDF0E08081E8
:100DE0008160808384E082BF81E080931B068881DC
:100DF0008E7F888302EE10E0F80110821092DA00F4
:100E000081EEC82ED12CF601108288818F778883DD
:100E100088818068888388818F7D888319BC10923F
:100E200040061092410610923F0610923E0690EE48
:100E3000E92EF12CF70180818B7F8083888181608E
:100E4000888342E060E080E00E94AE06F601808187
:100E50008E7F8083F80180818160808380818860BB
:100E60008083F70180818E7F808388818061888381
:100E7000DF91CF911F910F91FF90EF90DF90CF9076
:100E80000895FC01809148069091490686179707BE
:100E9000A0F06115710529F49091E8009E77909378
:100EA000E80090E06115710551F4911108C080913E
:100EB000E80082FF34C080E00895BC01F2CF809149
:100EC00040068823C1F18530C1F18091E80083FD9F
:100ED00030C08091E80082FDEACF8091E80080FF79
:100EE000E1CF8091F3002091F200382F6115710558
:100EF00019F02830310558F091E02830310509F01B
:100F000090E02091E8002E772093E800CBCF8191EC
:100F10008093F100615071092F5F3F4FE7CF8091BF
:100F20004006882341F0853041F08091E80083FF3E
:100F3000BECF81E0089582E0089583E00895809116
:100F40001D06089590910706803F59F48091080688
:100F500087FF0DC01092080691110BC01092030676
:100F600008C0813F81F48091080618169CF39923EC
:100F700081F08091090690910A06892B09F064C0DE
:100F8000109200060895823F49F497FFF0CF109227
:100F90000706809108068111ECCFE0CF833F19F45A
:100FA0001916ACF3E4CF20910906893F29F41216F3
:100FB000F4F610920906DBCF8A3F19F427FFD7CF4A
:100FC000F8CF20910A068B3F29F427FFD0CF10924B
:100FD0000A06CDCF8C3F19F41216CCF3C8CF843F4C
:100FE00031F4809106068E7F80930606C0CF853F40
:100FF00021F4809106068D7FF7CF863F21F4809102
:1010000006068B7FF1CF873F21F480910606877F0C
:10101000EBCF883F21F4809106068F7EE5CF8D3F90
:1010200031F48091CF058E7F8093CF05A0CF8E3F86
:1010300021F48091CF058D7FF7CF8F3F09F097CFB7
:101040008091CF058B7FF0CF08958091CF0580FDF3
:101050001AC081FD14C082FD14C08091000688234F
:1010600091F08A3170F425E0829FC00111246AE179
:1010700070E00E94E02F862F672B29F0089582E010
:10108000089585E0089581E008958091CF0580FD61
:1010900016C081FD16C082FD18C08091030688230A
:1010A00091F08D3290F42FE0829FC00111246DE207
:1010B00070E00E94E02F862F672B49F0089583E0AF
:1010C000089587E0089585E008958FE0089581E010
:1010D0000895803F31F40E94450881958093080669
:1010E0000895813F19F40E944508F8CF823F31F4FA
:1010F0000E9445088195809307060895833F19F45F
:101100000E944508F8CF893F29F40E942508809362
:10111000090608958A3F21F40E9425088195F7CF9A
:101120008B3F31F40E942508819580930A0608952B
:101130008C3F19F40E942508F8CF843F31F4809148
:1011400006068160809306060895853F21F480910C
:1011500006068260F7CF863F21F480910606846000
:10116000F1CF873F21F4809106068860EBCF883F5E
:1011700021F4809106068061E5CF8D3F31F48091A6
:10118000CF0581608093CF0508958E3F21F4809133
:10119000CF058260F7CF8F3FB9F78091CF0584608C
:1011A000F1CF9C014FB7F8948091CB059091CC057D
:1011B000A091CD05B091CE054FBF821B930B089532
:1011C000209118012223C9F02091EC0527FF15C0BA
:1011D000E62FE695E695E695EE31D8F4E80FF92F7F
:1011E000F11D677021E030E001C0220F6A95EAF737
:1011F00020958281282322830895FC013296089647
:101200002191621303C0DF0111971C92E817F907BF
:10121000B9F70895209118012223C1F02091EC051F
:1012200027FF14C0E62FE695E695E695EE31F8F433
:10123000E80FF92FF11D677021E030E001C0220FA7
:101240006A95EAF78281822B82830895FC013296A7
:101250002FEF30E04191641751F02F3F19F4411105
:1012600001C0232F3F5F3630A9F72F3F09F40895BF
:10127000820F911D27FD9A95FC0162830895CF92FC
:10128000DF92EF92FF926C01EE24FF2420E0C11464
:10129000D104E104F10419F0C701B60120E1C72E21
:1012A000D82EE92EFF24C114D104E104F10419F071
:1012B000285FC701B6016B017C0154E0F694E79406
:1012C000D794C7945A95D1F7C114D104E104F1041D
:1012D00019F02C5FC701B6016B017C0142E0F69466
:1012E000E794D794C7944A95D1F7C114D104E10487
:1012F000F10419F02E5FC701B60196958795779591
:101300006795672B682B692B09F02F5F822FFF9061
:10131000EF90DF90CF9008958091C60581111092D3
:10132000C60508958091C5059091C405892B9091BB
:10133000C305892B8093B4039091C6059923A1F02E
:10134000892B8093B40380911801882341F1809107
:10135000EC0587FF24C08EE1E6EBF3E090E08150DE
:1013600000F591110E948C09E091EE05F091EF05D6
:101370003097E1F080911801882359F08091EC05B5
:1013800087FF07C08091B4038093B50385E0809305
:10139000B4030280F381E02D84EB93E0099486E0AE
:1013A000DBCF21912223D9F29F5FD9CF0895E92F76
:1013B000EE0FE90FEE0F8E0F982F9770869586959A
:1013C000869525E0829FF0011124E557FA4F50E001
:1013D00040E080E0219130E0092E02C0369527954B
:1013E0000A94E2F721703327042E01C0220F0A94D9
:1013F000EAF7822B4F5F5F4F4530510559F708954B
:10140000E92FEE0FE90FEE0F8E0F982F977041E046
:1014100001C0440F9A95EAF786958695869595E0E2
:10142000899FF0011124E557FA4F30E020E070E089
:101430005191DF011197CB01022E02C0969587953D
:101440000A94E2F7817081958527842385278C9300
:101450002F5F3F4F2530310559F7089580918A0558
:1014600090915905981301C008958F5F8770FACF46
:10147000882341F080959091C40589238093C40509
:101480000C9492090895882339F09091C405982B03
:101490009093C4050C9492090895882341F0809597
:1014A0009091C50589238093C5050C9492090895F0
:1014B000882339F09091C505982B9093C5050C941D
:1014C0009209089520913D0530913E05281739076E
:1014D00071F090933E0580933D05E091EE05F0910B
:1014E000EF05309721F00084F185E02D09940895EF
:1014F00020913B0530913C052817390771F09093F6
:101500003C0580933B05E091EE05F091EF053097A7
:1015100021F00680F781E02D09940895E091EE0511
:10152000F091EF05309721F00190F081E02D0994C2
:1015300080E00895FA01811101C0FB010994803314
:10154000910538F5880F991F880F991FFC01E85DF8
:10155000FE4F5281338180818370E181A82FB0E0FA
:1015600070E9879FC00111248B509C4FE80FF92F21
:10157000F11DB4976083FC01E50FF11DB497408322
:10158000830F911DFC01B4972083AD50BC4F81E0C7
:101590008C930895FF920F931F93CF93DF93182F8F
:1015A000062FF42ED0E0C0E02F2D402F612FCE016A
:1015B0000E949F0A2196C033D105B1F7DF91CF91E8
:1015C0001F910F91FF90089580915106837011F43F
:1015D00010921C01809151068C7F8160809351068E
:1015E00008950C94CA0A0C949F0A0F931F9310E05D
:1015F000F801EE0FFF1FEC5DFC4F9081905797FDB7
:101600009195000F111FF801EB5DFC4F0081005216
:10161000110B2003F001219FF00D112408E310E0CD
:10162000091B110997FD139540039001419F300D4F
:101630001124E20FF31F9F01220F331F2E0F3F1FB4
:1016400037FF02C021583F4F220F232F221F330B99
:10165000620F1F910F9108950F931F93522F10E067
:10166000F801EE0FFF1FEB5DFC4FA081A052BB0BFA
:101670009D015203F001539FF00D1124000F111F23
:10168000D801AC5DBC4F0C910057110B4003900189
:10169000419F300D11242E0F3F1F37FF02C0215CE8
:1016A0003F4F96E0359527959A95E1F7620F1F9188
:1016B0000F9108950F931F93522F10E0F801EE0F32
:1016C000FF1FEB5DFC4FA081A052BB0B9D0152039D
:1016D000F001539FF00D1124000F111FD801AC5DD4
:1016E000BC4F0C910057110B40039001419F300DEE
:1016F00011242E0F3F1F37FF02C021583F4F220FEA
:10170000232F221F330B620F1F910F910895EF9229
:101710000F93972F23E0029FB001112475956795D1
:101720006E0D792F0F91EF900895322F50E0FA014E
:10173000EE0FFF1FEB5DFC4F9081905297FD91954E
:10174000440F551FFA01EC5DFC4F2081231B330B26
:10175000290F311D97FD3A95620F0895E42FF0E0AF
:10176000EE0FFF1FEB5DFC4F6081621B0895E42FBD
:10177000F0E0EE0FFF1FEC5DFC4F6081621B0895EF
:10178000622F0895E42FF0E0EE0FFF1FEC5DFC4F99
:10179000408134EE439F412D1124E82FF0E050E0CA
:1017A000445E5F4FDA01A21BB1099D01B7FF03C080
:1017B00031952195310993E0220F331F9A95E1F776
:1017C000AF01421B530B9A0157FD20E0582F259F74
:1017D000212D1124822F0895E42FF0E0EE0FFF1F3A
:1017E000EC5DFC4F408134EE439F412D1124E72FE7
:1017F000F0E050E0445E5F4FDA01A21BB1099D01A9
:10180000B7FF03C031952195310993E0220F331FB3
:101810009A95E1F7AF01421B530B9A0157FD20E067
:10182000279F212D1124722F0895FC019B01009701
:1018300029F480E077FF2BC080E80895AC0197FF82
:1018400004C044275527481B590BB901640F751F65
:1018500037FD10C0241B350BC901A5E0880F991F67
:10186000AA95E1F70E94E02F80E2861BF7FF0FC0E8
:1018700081950895CB0165E0880F991F6A95E1F77E
:10188000BA01621B730B0E94E02F80E6EECF089531
:10189000EF920F93CF93DF93D72FC82FC9010E1963
:1018A000BA010E94150C602F681B7D2F8C2FDF91D1
:1018B000CF910F91EF9008950F93CF93DF93D72F90
:1018C000C82FC901BA010E94150C682F600F7D2F27
:1018D0008C2FDF91CF910F910895EF920F931F936B
:1018E000CF93DF93D62FC72F182FC9010E19010FE1
:1018F000BA010E94150C081B202F219F212D1124B5
:10190000822F6D2F7C2FDF91CF911F910F91EF9040
:101910000895EF920F931F93CF93DF93D62F172F36
:10192000C82FC9010E19070FBA010E94150C702F9C
:10193000781B719F712D11246D2F8C2FDF91CF910A
:101940001F910F91EF9008950F931F93CF93DF9303
:10195000D62FC72F182FC901212F201B022FBA0104
:101960000E94150C982F990F990F891B800F282F13
:10197000219F212D1124822F6D2F7C2FDF91CF915C
:101980001F910F9108950F931F93CF93DF93D62F3D
:10199000172FC82FC901272F201B022FBA010E9421
:1019A000150C982F990F990F782F791B700F719F35
:1019B000712D11246D2F8C2FDF91CF911F910F91DD
:1019C0000895E82F86FDE0952E2F2F7086FD2F5F5E
:1019D000E695E695E695E670F0E0E05EFE4F9181D3
:1019E000929F902D212D112492959F702295207FFA
:1019F000922B2081920F87FD919580E8890F0895A1
:101A0000AC018230910508F408959FEF413E8EE1CC
:101A1000580740F49A0195E0369527959A95E1F795
:101A200098E0920F61E0E62FE90FFF27FF1F9F016B
:101A300035952795822F229FF001239FF00DF00D01
:101A400011244E175F0738F49FEF920F961758F73F
:101A50008FEF860F08952F3FE9F361E0620FF6CF15
:101A60000F93CF93DF93D72FC82F47FD419588E37E
:101A700090E0841B910947FD9395889FB001899F51
:101A8000700D700D1124229FC001239F900D900DA9
:101A90001124860F971F0E94000D982F990F890F10
:101AA000682F600F7D2F8C2FDF91CF910F910895BC
:101AB00030E020E0869F212D969F200D311D1124BE
:101AC000C9010895AF92BF92CF92DF92FF920F9318
:101AD0001F93CF93DF93362F472FE82FF0E0EA567E
:101AE000FA4F71110FC0E4918E2F2E2F6E2F722F8F
:101AF000DF91CF911F910F91FF90DF90CF90BF901A
:101B0000AF900895C72FD0E02491F22E022F10E05D
:101B100056E0659FC0011124EFEFF0E0BF010E9485
:101B2000CC2F832F90E0880F991F35E5369FD00189
:101B3000379FB00D11248A1B9B0B982F990F980F7C
:101B40006F01CC1ADD0AC09ED001C19EB00DD09E9F
:101B5000B00D11248B2F499FA0011124452F55272B
:101B60006F01C41AD50AC09EA001C19E500DD09E1F
:101B7000500D11245F01A91AB108AC9E6001AD9E01
:101B8000D00CBC9ED00C1124CD2CDD24EC19FD0909
:101B9000E09FE001E19FD00DF09FD00D1124ED2FCB
:101BA00062307105A1F050F46115710509F49ECF02
:101BB0006130710581F0EB2F852F98CF643071056E
:101BC00069F080F06630710509F490CFF4CFE22F10
:101BD0002B2F8D2F8BCFE22F252F88CFEB2F822F0E
:101BE0002D2F84CF2B2F8F2DE52F80CF9F92AF925B
:101BF000BF92CF92DF92EF92FF920F931F93CF93FA
:101C0000DF936C0180911901C82FCC0FCC0FC80F46
:101C100015E01C0FB12E113310F030E3B32E60919C
:101C200055066695669580914D0690914E060E94E8
:101C3000580DF82E80E48F0D0E94E10C90E8A92E3B
:101C4000A80E8F2D0E94E10C20E8922E980ED0E075
:101C5000CB1580F081E0103308F080E0DF91CF9168
:101C60001F910F91FF90EF90DF90CF90BF90AF90BA
:101C70009F900895FE01EC57FC4F808190911A01CE
:101C80008923A1F060915206709153068091540609
:101C9000EF2C0C2F292D4A2DF60109950E94620D7B
:101CA000462F282F672FCE010E94F30A2196D0CF0E
:101CB0007F928F929F92AF92BF92CF92DF92EF92DC
:101CC000FF920F931F93CF93DF935C0180911901D3
:101CD000C82FCC0FCC0FC80F15E01C0FF12E1133FD
:101CE00010F030E3F32E60915506669580914D0615
:101CF00090914E060E94580D782ED0E0CF1590F0AE
:101D000081E0103308F080E0DF91CF911F910F91B7
:101D1000FF90EF90DF90CF90BF90AF909F908F900B
:101D20007F900895FE01EC57FC4F808190911A013D
:101D30008923C9F1CE01880F991F80539D4FFC0163
:101D4000EC5AFF4F2081422F4057550B6A018B5AA6
:101D50009F4FFC018081282F2052330B4901449F63
:101D60009001459F300D300D1124889CC001899C45
:101D7000900D900D1124820F931F0E94000D082FCB
:101D8000609152067091530680915406E72C94019D
:101D9000A601F50109950E94620D462F282F672F95
:101DA000CE010E94F30A2196A9CFCF92DF92EF9243
:101DB000FF920F931F93CF93DF937C0180911901C2
:101DC000C82FCC0FCC0FC80F15E01C0FD12E11332C
:101DD00010F030E3D32E60915506669580914D0644
:101DE00090914E060E94580DC82ED0E0CD1568F097
:101DF00081E0103308F080E0DF91CF911F910F91C7
:101E0000FF90EF90DF90CF900895FE01EC57FC4FCC
:101E1000808190911A01892311F1CE01880F991FB9
:101E200080539D4FFC01EB5AFF4F20812052330B12
:101E30008C5A9F4FFC0140814057550B60915206D0
:101E400070915306809154060C2DF70109950E945C
:101E5000620D462F282F672FCE010E94F30A21968C
:101E6000C5CFDF92EF92FF920F931F93CF93DF9333
:101E70007C0180911901C82FCC0FCC0FC80F15E041
:101E80001C0F012F113308F000E360915506669591
:101E9000669580914D0690914E060E94580DD82E61
:101EA000D0E0C01760F081E0103308F080E0DF91EF
:101EB000CF911F910F91FF90EF90DF900895FE0159
:101EC000EC57FC4F808190911A01892391F0609129
:101ED000520670915306809154062D2D4C2FF70118
:101EE00009950E94620D462F282F672FCE010E9470
:101EF000F30A2196D6CF9091EC0592FF06C0282FC9
:101F000028712830F9F4877F846093FF06C0282F5A
:101F100028712831F1F4877E84612091ED0520FF3E
:101F200006C0382F38713830D9F4877F816021FF9F
:101F300006C0282F28712831D1F4877E816194FD55
:101F4000877E0895282F24712430F9F68B7F8860CE
:101F5000DCCF282F2471243101F78B7E8861DDCFFF
:101F6000382F3171313019F78E7F8860E0CF282FFC
:101F70002171213121F78E7E8861E1CFCF93DF93EC
:101F8000972F70E026E0929F600D711D1124FB01D8
:101F900034E5839FE00DF11D1124EE0FFF1FEA567B
:101FA000F94FC591D491CE01C238D105B9F1E8F508
:101FB000C133D10509F499C050F5C932D10509F4EE
:101FC0008DC0CA32D10509F497C0C11542E5D407C6
:101FD00008F0C4C0C11521E5D20708F038C1C83ED9
:101FE000D10508F09DC0C03ED10568F5C83AD105BD
:101FF00008F089C0C53AD10508F005C1C130D10546
:1020000011F1209709F443C02497E8F440C0C53388
:10201000D10509F45CC0C933D105B9F62091EC05AE
:10202000237089F080EE90E00EC0C33ED10591F19F
:1020300068F4C03ED105F9F0C23ED10531F62091D9
:10204000EC0522FD20C0DF91CF910895C63ED10559
:1020500061F1C73ED10581F1C43ED10509F0B5CF8C
:102060002091ED0521FFEFCF8091EC0584FD0FC09D
:1020700087EE90E0E8CF2091EC0520FD19C130916A
:10208000ED0530FFE0CF83EE90E024FFDCCF90E061
:1020900080E0D9CF2091EC0522FD0DC13091ED05F6
:1020A00030FDC0CF24FFCFCFF2CF2091EC0523FF2E
:1020B000CACF24FDECCFDCCF2091EC0523FDFEC080
:1020C0003091ED0531FFEECF84EE90E0BCCF209152
:1020D000EC0525FFB8CF89E290E0B5CF2091EC0563
:1020E00025FFB1CF85E390E0AECF2091EC0526FF30
:1020F000AACF8AE290E0A7CF2091EC0526FFA3CFDC
:1021000081E390E0A0CFCF3BD10508F6C85AD0E0DC
:10211000CC0FDD1FCD56DD4F88819981946493CF1C
:10212000C11530E2D30760F4C11541E0D40708F0CF
:102130008ACFCE019065C03FD10508F084CFA7CFEC
:10214000C11580E4D80708F4A2CFC11590E5D907DE
:1021500008F061C0CE019F70906A75CFC11526E569
:10216000D20718F5C11535E5D30708F086C0C115AB
:1021700044E5D40708F07CC09C2F96959695AE0157
:1021800043705527C115D34508F466C021E030E0FF
:1021900002C0220F331F4A95E2F740E2949FC0012C
:1021A0001124822B932B9A684ECFC1159AE5D9073B
:1021B00078F4C11529E5D20708F069C0C11538E5E2
:1021C000D30708F464CF9C2F8827806F906A3BCF99
:1021D000C1154BE5D40708F45ACFC1158CE5D807D3
:1021E00008F462C0CE0190568115904208F04FCF9E
:1021F0008D2F8F710E947B0F90E0982F8827882762
:102200009F718C2B42C0C55AD0E0C057DD4F8881EA
:1022100090E0906418CF9E01E4E036952795EA950A
:10222000E1F723708C2F86958695837030E2839F2B
:10223000C0011124922BC37021E030E002C0220FB4
:10224000331FCA95E2F7822B932B9C68FCCE9C2F00
:102250008827816F906AF7CE21E030E002C0220F1C
:10226000331F4A95E2F740E2949FC0011124EBCF5F
:102270009C2F8827846F906AE6CE8C2F0E947B0F5C
:1022800090E0982F882788279F719062DCCE8C2F52
:102290008F700E947B0F34E0D695C7953A95E1F791
:1022A000CF709C2F9069CFCECE0199279066CBCE70
:1022B00089E390E0C8CE82EE90E0C5CE86EE90E055
:1022C000C2CEBF92CF92DF92EF92FF920F931F93F5
:1022D000CF93DF938C01C090E805D090E905E090A2
:1022E000EA05F090EB058091C7059091C805A09193
:1022F000C905B091CA05C82AD92AEA2AFB2ACFE122
:10230000D0E0BC2ED701C6010C2E04C0B695A7950F
:10231000979587950A94D2F780FD0EC0219788F78C
:10232000B12C8B2DDF91CF911F910F91FF90EF90EA
:10233000DF90CF90BF900895B8018C2F0E94BE0F00
:10234000019761F3EECFCF93DF93EC010E9461110F
:10235000BE01DF91CF910C94BE0F0E94A311292FD3
:102360002F7092959F7092509E3078F4E92FF0E094
:10237000E652FC4C0C94F42F803F19F020F4883E78
:1023800020F481E00895843FE1F380E00895883EE1
:10239000C0F3813FD1F7F5CF822F8695869586953C
:1023A0000895CF93DF939C013A9521153F4168F53D
:1023B000EC01CC27D170DC01AA27B270AC01442714
:1023C00054709C012227387094FF11C080E1CD2BFE
:1023D00009F480E0AB2B09F08062452B09F08064A2
:1023E000232B09F08068FB01DF91CF91099481E0F4
:1023F000CD2B09F480E0AB2B09F08260452B09F06E
:102400008460232B81F38860EECFDF91CF91089514
:102410009F92AF92BF92CF92DF92EF92FF920F9373
:102420001F93CF93DF9320E9289FE001299FD00DD0
:102430001124CA55DE4F10E000E0FE016491319690
:10244000749131968491962F972B982BC1F420E0AC
:1024500040E060E0C8010E94F30A0F5F1F4F23961F
:102460000033110551F7DF91CF911F910F91FF902C
:10247000EF90DF90CF90BF90AF909F9008950E9413
:10248000620D962EB72EA82E6091540670E090E053
:1024900080E00E94DD3220E030E04FE753E40E940C
:1024A0003C326B017C016A2D70E090E080E00E947C
:1024B000DF32A70196010E946B330E94AE32A62E36
:1024C000692D70E090E080E00E94DF32A701960164
:1024D0000E946B330E94AE32962E6B2D70E090E01E
:1024E00080E00E94DF32A70196010E946B330E94B8
:1024F000AE322A2D492DAECF27982F9808952698D1
:102500002E98089525982D98089556985E980895C8
:10251000279A2F9A0895269A2E9A0895259A2D9AE9
:102520000895CF92DF92EF92FF92CF936B017C01DF
:102530000E943F09C82F0E9485120E9482120E94A9
:102540007F120E947C12C150C73040F4EC2FF0E0A3
:10255000E851FC4C0C94F42F0E948E12C701B60176
:10256000CF91FF90EF90DF90CF9008950E948E1250
:102570000E948B12F3CF0E948E120E948812EECF1F
:102580000E948E120E948B12F8CF209828982198D2
:10259000299822982A9823982B9852985A985398B9
:1025A0005B983E98469808958098889A8198899A71
:1025B00084988C9A85988D9A86988E9A87988F9A07
:1025C0000895CF93DF9300D00F92CDB7DEB79091EF
:1025D0004006943019F589837B836A8383E0809376
:1025E000E9008FEF9091E800815095FD06C095EDD0
:1025F0009A95F1F700008111F5CF8091E80085FFF1
:102600000DC050E040E063E070E0CE0101960E9412
:1026100065068091E8008E778093E8000F900F9018
:102620000F90DF91CF910895BC0184E00C94E112EA
:10263000BC0183E00C94E1129C0182E08093E900EC
:102640009FEF8091E800915085FD06C085ED8A9549
:10265000F1F700009111F5CF8091E80085FF0CC0E3
:1026600050E040E065E070E0C9010E94650680919D
:10267000E8008E778093E8000895CF93DF93EC0114
:10268000809118018823B1F18091EC0587FF32C059
:1026900060E283E08093E9008FEF9091E800815041
:1026A00095FD06C095ED9A95F1F700008111F5CFE3
:1026B0008091E80085FF1BC08091180170E050E018
:1026C00040E0811104C050E040E068E070E0CE01DD
:1026D0000E9465068091E8008E778093E80080E292
:1026E000FE01AEE1B6E001900D928A95E1F7DF912F
:1026F000CF91089568E081E0CDCFEF92FF920F93E4
:102700001F93CF93DF930E9485120E9482120E9432
:102710007F120E947C1288E8E82EF12C8FEF90E067
:10272000F701918380830AE810E0F80191838083A8
:10273000CCE8D0E0998388830E948E12FFEF20E7D7
:1027400082E0F15020408040E1F700C000000E948C
:102750008B129FEFE0E7F2E09150E040F040E1F7AC
:1027600000C000000E9488122FEF80E792E0215005
:1027700080409040E1F700C000000E948212EFEF1D
:10278000F0E722E0E150F0402040E1F700C0000017
:102790000E947F128FEF90E7E2E081509040E0408E
:1027A000E1F700C000000E947C128091D60587707E
:1027B000FFEF8F9FC001112495958795959587957B
:1027C0009927F70191838083F8019183808399830E
:1027D00088830E9485120E9482120E947F12DF91DC
:1027E000CF911F910F91FF90EF900C947C12CF939B
:1027F00084E090E00E949131C82F81E290E00E9435
:102800009131982F8C2FCF9108956FEE7EEF90E04D
:1028100080E00E94D33160E082E090E00E94B53118
:1028200060E083E090E00E94B5311092C7051092FD
:10283000C8051092C9051092CA0560E084E090E0D6
:102840000E94B53160E081E290E00E94B53160E025
:1028500085E090E00E94B53160E086E090E00E9463
:10286000B5316FEF87E090E00E94B53140E050E075
:10287000BA0188E090E00E94C73160E08DE090E00E
:102880000E94B53140E050E0BA0188E190E00E943A
:10289000C73160E087E190E00E94B53140E050E050
:1028A000BA018CE190E00E94C73160E080E290E0E4
:1028B0000E94B53140E050E0BA0188E190E00E940A
:1028C000C7311092D6051092D7051092D8051092F4
:1028D000D90584E080618093D6054091D60550915A
:1028E000D7056091D8057091D9058FE090E00E94DE
:1028F000C73140E050E0BA0183E190E00C94C73169
:102900000F931F93CF93DF93082F000FEB0114E277
:102910001093DF03E0EEF3E0DE018D91819383E01D
:10292000E03FF807D1F724E630E041E150E06FEDF9
:1029300073E0802F0E94A12F105F6096143B41F737
:10294000DF91CF911F910F9108958091F303882318
:1029500029F065EF73E084E70E9480141092F3037E
:102960008091F403882329F065E874E087E70E94EA
:1029700080141092F4030895EFEDF3E06083418337
:1029800024E630E042E050E0BF01880F0C94A12F14
:10299000EF92FF920F931F93CF93DF93E82E062FB2
:1029A00010E0075C1A4FF8018081882381F0F2E182
:1029B0006F9FE0011124CB5EDA4FF12C49916F2D0E
:1029C0008E2D0E94BC14F39482E1F812F7CFF80127
:1029D0001082DF91CF911F910F91FF90EF9008959A
:1029E000CF93DF93C82F4BE06DEF0E94BC1440E003
:1029F0006AE08C2F0E94BC148FE39CE90197F1F7E9
:102A000000C0000040E060E08C2F0E94BC1440E059
:102A100061E08C2F0E94BC1440E066E08C2F0E9485
:102A2000BC1440E06DEF8C2F0E94BC14D0E040E05D
:102A30006D2F8C2F0E94BC14DF5FD231C1F740E0B4
:102A40006D2F8C2F0E94BC14DF5FD432C1F740E0A1
:102A50006D2F8C2F0E94BC14DF5FD43BC1F74BE07D
:102A60006DEF8C2F0E94BC1441E06AE08C2F0E9415
:102A7000BC1440E06DEF8C2FDF91CF910C94BC140F
:102A80006F927F928F929F92AF92BF92CF92DF927E
:102A9000EF92FF920F931F93CF93DF930E94EC2E40
:102AA00084E70E94F01487E70E94F01468E2E62EA3
:102AB00061E0F62ED12CC12C72E1772EE8E08E2E4B
:102AC000912CAA24A394B12C66246394F70141812C
:102AD00050E0CA01849702810452110BC381C45291
:102AE000DD0BF601EE0FFF1FEE0FFF1FE85DFE4F3F
:102AF0002081237030E0FC0197FD379643E0F59587
:102B0000E7954A95E1F7729EA001739E500D11243E
:102B10004B5E5A4FE40FF52FF11DB4010E94E02FD8
:102B2000A50101C0440F8A95EAF78081842B808338
:102B3000F80117FD379693E0F595E7959A95E1F73B
:102B4000729EC001739E900D11248B5E9A4FE80F08
:102B5000F92FF11DC801B4010E94E02FA50101C0A9
:102B6000440F8A95EAF78081842B8083FE01D7FD8C
:102B7000379683E0F595E7958A95E1F7729EC00157
:102B8000739E900D11248B5E9A4FE80FF92FF11D63
:102B9000CE01B4010E94E02FA50101C0440F8A9527
:102BA000EAF78081842B8083275C3A4FF9016082A9
:102BB000FFEFCF1ADF0A84E0E80EF11CE0E3CE1647
:102BC000D10409F083CF60E084E70E94C81461E07B
:102BD00087E7DF91CF911F910F91FF90EF90DF90EA
:102BE000CF90BF90AF909F908F907F906F900C94FC
:102BF000C8141F93CF93DF93EC01FC01EC57FC4FFB
:102C000080816823A1F00E944630182F0E94463030
:102C1000612F782F809154060E94620D462F282F35
:102C2000672FCE01DF91CF911F910C94F30ADF91B2
:102C3000CF911F910895DF92EF92FF920F931F9310
:102C4000CF93DF938C01FC01EC57FC4F808168230C
:102C500081F1D0905306D0915406C0915206EC2ECB
:102C6000F12C0E944630282FC7018C549F4F68E6F4
:102C700071E00E94E02F8E199F0997FD03969595AC
:102C800087959595879523706C2F289F600D11244B
:102C90007D2D8D2F0E94620D462F282F672FC80192
:102CA000DF91CF911F910F91FF90EF90DF900C94E7
:102CB000F30ADF91CF911F910F91FF90EF90DF907A
:102CC000089545E050E06CE170E081E596E00C94F9
:102CD000A53190915106937041F080935206609314
:102CE0005306409354060C9461160895E1E5F6E00E
:102CF000438120E1421B08F440E08181628190E041
:102D00000C946916E1E5F6E0438120E1420F08F4F6
:102D10004FEF8181628190E00C946916E1E5F6E065
:102D2000628120E1621B08F460E08181438190E0D0
:102D30000C946916E1E5F6E0628120E1620F08F487
:102D40006FEF8181438190E00C946916E1E5F6E034
:102D50008181438162818850990B0C946916E1E569
:102D6000F6E0818190E04381628108960C946916B7
:102D700090915106937089F0811107C094609093EF
:102D8000510610921C010C946116893110F0906666
:102D9000F6CF880F880F982BF2CF089580915106B7
:102DA00086958695815009F488E10C94B816809137
:102DB0005106869586958F5F893108F081E00C94E5
:102DC000B816E1E5F6E0248130E1230F08F42FEF97
:102DD00024830C946116E1E5F6E0248130E1231BA5
:102DE00008F420E024830C946116E1E5F6E085E325
:102DF000808380911D0190911E01A0911F0181830C
:102E00009283A3838CE384830C9461160E94401503
:102E100090E080E00E949F318F3E9E4F21F00E9403
:102E200005140E94F51645E050E06CE170E081E584
:102E300096E00E948131809151068C7F11F40C94B0
:102E4000F516089580E290E090930D0180930C01B7
:102E50008091D40381110EC00E94EC2E81E08093FA
:102E6000D4032FEF83ED90E3215080409040E1F7B1
:102E700000C0000064E670E080E40E94F22E9093AF
:102E80000D0180930C01892B09F04EC064E670E0BF
:102E900080E00E944E2F90930D0180930C01892BAE
:102EA00009F042C064E670E080E00E944E2F9093EB
:102EB0000D0180930C01892BB9F564E670E08FE376
:102EC0000E944E2F90930D0180930C01892B61F588
:102ED0000E94C82F64E670E080E40E94F22E909376
:102EE0000D0180930C01892BF9F464E670E08CE00D
:102EF0000E944E2F90930D0180930C01892BA1F419
:102F000064E670E080E00E944E2F90930D01809364
:102F10000C01892B49F464E670E08FE30E944E2F88
:102F200090930D0180930C010E94C82F80910C0199
:102F30000895CF93C82F873070F580910C01909140
:102F40000D01892B89F564E670E080E40E94F22E81
:102F500090930D0180930C01892BD1F464E670E00D
:102F600082E10E944E2F90930D0180930C01892BDA
:102F700079F481E090E001C0880FCA95EAF764E631
:102F800070E080950E944E2F90930D0180930C016C
:102F9000CF910C94C82F8A30B9F040F4883071F08A
:102FA000893079F0209A2898CF9108958C3091F04B
:102FB00070F08D30B9F73E9A4698F6CF219A29984D
:102FC000F3CF229A2A98F0CF239A2B98EDCF529ADA
:102FD0005A98EACF539A5B98E7CFCF93873050F552
:102FE00080910C0190910D01C0E0892B71F464E691
:102FF00070E081E40E94F22E90930D0180930C0109
:10300000892B31F0C0E00E94C82F8C2FCF910895FA
:1030100084E690E00E947D2F97FF05C090930D01FC
:1030200080930C01EFCFC82FC09510920D01109224
:103030000C01E9CFCFB18FB1869586958C73C370A3
:103040008C2BC82FC095E1CF1F920F920FB60F9215
:1030500011242F933F934F935F936F937F938F939D
:103060009F93AF93BF93EF93FF938091E10082FF13
:1030700009C08091E20082FF05C08091E1008B7F52
:103080008093E1008091DA0080FF24C08091D80015
:1030900080FF20C08091DA008E7F8093DA008091DB
:1030A000D90080FF9BC080E189BD82E189BD09B460
:1030B00000FEFDCF81E08093400680911B068111C8
:1030C00009C00E9415060E94E0068091E20084601B
:1030D0008093E2008091E10080FF17C08091E200C0
:1030E00080FF13C08091E2008E7F8093E200809188
:1030F000E20080618093E2008091D800806280933A
:10310000D80019BC85E0809340068091E10084FFDF
:1031100029C08091E20084FF25C080E189BD82E161
:1031200089BD89B5982F917080FFFBCF8091D80021
:103130008F7D8093D8008091E1008F7E8093E100A5
:103140008091E2008F7E8093E2008091E2008160B6
:103150008093E20080914106882309F445C084E011
:10316000809340068091E10083FF27C08091E200B8
:1031700083FF23C08091E100877F8093E10082E09C
:1031800080934006109241068091E1008E7F8093EB
:10319000E1008091E2008E7F8093E2008091E20066
:1031A00080618093E20042E060E080E00E94AE0631
:1031B0008091F00088608093F000FF91EF91BF91C3
:1031C000AF919F918F917F916F915F914F913F91BF
:1031D0002F910F900FBE0F901F90189519BC109251
:1031E000400610921B0676CF8091E30087FD93E0A6
:1031F00090934006B7CF78941F921FB61F92112468
:103200008F939F93AF93BF938091CB059091CC0503
:10321000A091CD05B091CE050196A11DB11D809361
:10322000CB059093CC05A093CD05B093CE05BF916F
:10323000AF919F918F911F901FBE1F9018952FB730
:10324000F8948091CB059091CC05A091CD05B091DB
:10325000CE052FBF08950E941F199C01909107066B
:1032600080910806982B21F03093050620930406E0
:103270009091090680910A06982B21F0309302065E
:1032800020930106E091EE05F091EF05309731F0C3
:103290000480F581E02D86E096E00994089510926F
:1032A000C4051092C3050E94920985E0E6E0F6E0AD
:1032B000DF011D928A95E9F710920306109200062D
:1032C0001092CF050E942B1990E080E00E94780AAE
:1032D00090E080E00C94620A0E9491126093E805ED
:1032E0007093E9058093EA059093EB050C944F19D0
:1032F0000F931F9341E050E060E070E004C0440F82
:10330000551F661F771F8A95D2F7CB01BA016095CA
:103310007095809590950091E8051091E9052091B0
:10332000EA053091EB0560237123822393231F91DB
:103330000F910C946C199091C2058095892380930C
:10334000C205282F277071F4282F082E000C330B8C
:103350009217130639F08595859585950E94781901
:103360001092C20508950F931F9341E050E060E072
:1033700070E004C0440F551F661F771F8A95D2F76F
:103380008091E8059091E905A091EA05B091EB05DF
:103390008A019B01082B192B2A2B3B2BC901B80151
:1033A0001F910F910C946C196093C7057093C80519
:1033B0008093C9059093CA050C944F191092C505C6
:1033C00080911801E6EBF3E0882359F08091EC0539
:1033D00087FF07C08EE1DF011D928A95E9F70C9403
:1033E0004F1986E0F8CF1F93CF93DF93CDB7DEB7A9
:1033F000AA970FB6F894DEBF0FBECDBF82E496E069
:103400002091F100DC012D93CD01B6E08A349B07B9
:10341000B9F780914306833009F471C0B8F4813064
:1034200009F448C0823009F4B2C08091E80083FFFB
:1034300083C280914206909143069A3008F07CC284
:10344000E92FF0E0E151FC4C0C94F42F8A3009F4A0
:103450008DC08B3009F470C0893039F780914206F5
:10346000813219F78091460690914706009711F036
:103470000297D9F68091E800877F8093E8008091D9
:10348000E80082FF37C09091F3008091F20002972C
:1034900029F48091F1008B7F813021F48091F1003B
:1034A00080931D068091E8008B778093E8000E944E
:1034B0008F06BBCF80914206813A09F0B6CF80914A
:1034C000E800877F8093E800809146069091470648
:1034D000892B61F460E28EE196E070E00E94410782
:1034E0008091E8008B778093E8009FCF60E090E0C8
:1034F00080E0F3CF809140068111C1CF96CF8091BB
:103500004206813A09F091CF809146069091470694
:10351000892B09F08ACF8091E800877F8093E800AB
:103520008091E80080FFFCCF809118018093F1002A
:103530008091E8008E77B9CF80914206813209F000
:1035400074CF8091460690914706892B09F06DCF84
:103550008091E800877F8093E8000E948F06809129
:103560004406809318010E94DE195FCF80914206C5
:10357000813209F05ACF8091E800877F8093E8007C
:103580000E948F068091450680931C064ECF809145
:103590004206813A09F049CF8091E800877F809305
:1035A000E8008091E80080FFFCCF80911C06BECF30
:1035B000803899F0823809F0BFC1809146068F703B
:1035C000873008F0B9C18093E9008091EB0085FB5A
:1035D000882780F91092E90006C080913E069091FC
:1035E0003F06911182609091E800977F9093E800E8
:1035F0008093F1001092F1008091E8008E7798C1DD
:10360000882309F486C1823009F096C1809144066E
:10361000811189C1809146068F702FEF280F2630C7
:1036200008F08AC18093E9002091EB0020FF7BC164
:10363000933031F48091EB0080628093EB0073C192
:103640009091EB0090619093EB0021E030E001C09D
:10365000220F8A95EAF72093EA001092EA008091FF
:10366000EB008860EACF811167C1109144061F7793
:103670008091E3008078812B8093E3008091E800C3
:10368000877F8093E8000E948F068091E80080FF8A
:10369000FCCF8091E30080688093E30082E0111109
:1036A00083E08093400648C18058823008F044C1CE
:1036B00020914406309145062C3DE3E03E07A1F5FC
:1036C00083E08A838AE289834FB7F894DE011396F8
:1036D00020E03EE051E2E32FF0E050935700E49108
:1036E00020FF03C0E295EF703F5FEF708E2F90E0F8
:1036F000EA30C0F0C7968D939D932F5F243159F720
:103700004FBF8091E800877F8093E8006AE270E015
:10371000CE0101960E9441078091E8008B7780934B
:10372000E8000AC1C096E7CF80914606909147060F
:10373000432F55274330510509F44AC078F54130ED
:10374000510509F47AC084E590E0EEE2FBE04230F6
:10375000510509F0F1C02091E800277F2093E8008F
:1037600020914806309149068217930708F49C017E
:1037700040E02115310509F065C0411163C0809119
:10378000E80082FDC9CF80914006882329F2853068
:1037900019F28091E80083FFF2CFBECF413251058C
:1037A00009F43CC04232510509F0C6C0833091058E
:1037B00008F0C2C0FC01EE0FFF1FEC53FD4F01905B
:1037C000F081E02D8F539D4FDC018C9190E01AC069
:1037D000332721303105D1F02115310561F0223038
:1037E000310509F0A9C0E4E9FBE0E4918E2F90E0F7
:1037F000E4E9FBE007C0E8EEFBE0E4918E2F90E007
:10380000E8EEFBE0009709F497C0A5CFE6EBFBE0FC
:10381000E4918E2F90E0E6EBFBE0F4CF833091054E
:1038200008F08AC0880F991FFC01E653FD4F0190F4
:10383000F081E02D89E090E08ECF82E190E0E2E837
:10384000FBE089CF80914006882309F465CF85305D
:1038500009F462CF8091E80083FD5ECF8091E8009B
:1038600082FD8DCF8091E80080FF83CF9091F3009F
:103870008091F2002115310519F08830910550F042
:1038800041E0089709F040E08091E8008E7780934E
:10389000E8006FCF44914093F100319621503109F7
:1038A0000196E8CF803809F047C08091E800877F13
:1038B0008093E800809141068093F1009DCE8111B4
:1038C0003BC0109144061230B8F58091E800877F24
:1038D0008093E800109341060E948F06112311F097
:1038E00084E005C08091E30087FDFACF81E08093FA
:1038F000400642E061EC81E00E94AE0642E061ECED
:1039000082E00E94AE0642E261EC83E00E94AE06D5
:1039100013C080914406813079F481E0933009F03E
:1039200080E080933F061092E9008091E800877F55
:103930008093E8000E948F068091E80083FF0AC010
:103940008091E800877F8093E8008091EB0080629F
:103950008093EB00AA960FB6F894DEBF0FBECDBFE2
:10396000DF91CF911F9108951F920F920FB60F9282
:1039700011242F933F934F935F936F937F938F9374
:103980009F93AF93BF93CF93DF93EF93FF93D09128
:10399000E900DF708091EC00C82FC17080FDC0E8A5
:1039A0001092E9008091F000877F8093F000789476
:1039B0000E94F3191092E9008091F00088608093D2
:1039C000F000CD2BCF70C093E900FF91EF91DF9114
:1039D000CF91BF91AF919F918F917F916F915F91A7
:1039E0004F913F912F910F900FBE0F901F90189500
:1039F0008823B1F19CEF980F913A38F4682F84EB4B
:103A000093E00E94E0080C94920990E2980F98309D
:103A100088F4877021E030E0A90102C0440F551FEF
:103A20008A95E2F7CA0180959091C5058923809314
:103A3000C505E9CF9BE5980F933020F490E080E036
:103A40000C94780A98E5980F973120F490E080E084
:103A50000C94620A803F20F00E94A2070C942B195C
:103A60000895CF93DF93EC010E94F81CCE01805E95
:103A70009109089720F068E37AE0209711F46DE44B
:103A80007AE0CE01DF91CF910C94D111CF93C82F62
:103A9000882309F46EC08CEF8C0F813AB8F58091C1
:103AA0001801882311F18091EC0587FF1EC0EC2FCF
:103AB000E695E695E695F0E0EC54FC4F828190E0C7
:103AC0004C2F477021E030E002C0220F331F4A958F
:103AD000E2F782239323892B89F06C2F84EB93E008
:103AE0000E94E0080E94920909C0E6EBF3E0819190
:103AF000C81799F383E0EC3BF807C9F76C2F84EB08
:103B000093E00E940A09CF910C94920980E28C0FF5
:103B1000883068F4C77021E030E001C0220FCA95F8
:103B2000EAF78091C505822B8093C505ECCFEBE5C4
:103B3000EC0FE33040F4F0E0E057FD4F808190E07F
:103B4000CF910C94780AE8E5EC0FE73150F4F0E0FF
:103B5000EE0FFF1FED56FD4F80819181CF910C94A8
:103B6000620AC03F30F08C2F0E946908CF910C94FC
:103B70002B19CF910895CF93C82F0E94461DC933AA
:103B800049F42FEF87EE93E0215080409040E1F719
:103B900000C000008C2FCF910C94F81C0F931F9342
:103BA000CF93DF93C62FD42F022FFC01828188236D
:103BB000A1F060934C060E941F1990934B068093CE
:103BC0004A06C77081E001C0880FCA95EAF7DF9105
:103BD000CF911F910F910C94580A80914C06681355
:103BE00035C080914A0690914B060E94D108883CCE
:103BF000910560F510E21D0FCD17B9F080E28C0F32
:103C0000883040F4C77081E001C0880FCA95EAF798
:103C10000E944D0A183048F481E09D2F977001C032
:103C2000880F9A95EAF70E94580A802F0E94BB1DC0
:103C3000183098F4D77081E001C0880FDA95EAF760
:103C4000DF91CF911F910F910C944D0AC77081E0C5
:103C500001C0880FCA95EAF7F3CFDF91CF911F918A
:103C60000F910895CF93DF93EC01805E910908973F
:103C700020F063E47AE0209711F468E57AE0CE0161
:103C80000E94D1118C2FDF91CF910C94461D4F9241
:103C90005F926F927F928F929F92AF92BF92CF92DC
:103CA000DF92EF92FF920F931F93CF93DF9300D099
:103CB00000D00F92CDB7DEB76C01FC0183819481F7
:103CC000892B39F01081F180812F8F218F3F09F0EE
:103CD000E8C60F900F900F900F900F90DF91CF914B
:103CE0001F910F91FF90EF90DF90CF90BF90AF901A
:103CF0009F908F907F906F905F904F9008950E945B
:103D00006111082F682F89819A810E94000AE12F92
:103D1000F0E026E0F29EE00DF11D112434E5039F52
:103D2000E00DF11D1124EE0FFF1FEA56F94F05912A
:103D30001491F60182810A32FDE51F0709F44BC098
:103D40000B322DE5120709F4E0C0033C3CE51307F4
:103D500009F001C18823E9F090911A018091D605FC
:103D60009F3F09F0F1C010921A018F7E8093D60513
:103D700040E060E080E00E94F10A4091D605509159
:103D8000D7056091D8057091D9058FE090E00E9429
:103D9000C7318091C205877009F49BCFF6018281FB
:103DA000882309F496CF82E00F900F900F900F9028
:103DB0000F90DF91CF911F910F91FF90EF90DF90C7
:103DC000CF90BF90AF909F908F907F906F905F90BB
:103DD0004F900C949B198823C9F18091D60591E0EE
:103DE000980F9770887F953008F4892B8093D605BB
:103DF0008091D6058770EFEF8E9FC00111249595B5
:103E00008795959587959927909389008093880049
:103E100090938B0080938A0090938D0080938C0008
:103E20004091D6055091D7056091D8057091D9057C
:103E30008FE090E00E94C7316091E8057091E9053C
:103E40008091EA059091EB050E949112F601828122
:103E5000882309F49DC09801225E3C452530310538
:103E600008F096C06EE1600F6093D2058CE090E0A0
:103E70000E94B531F6019281992309F423C610926C
:103E80004C060230FCE51F0708F42AC606312CE573
:103E9000120738F098012B5F3C452730310508F0B8
:103EA0001FC60E94F7139093ED058093EC050F3029
:103EB0003CE5130709F4FDC108F077C108309CE523
:103EC000190709F4E0C108F04CC10430FCE51F07F4
:103ED00009F4CDC108F032C102303CE5130709F402
:103EE000BEC103301C4509F4BEC16091EC051091C0
:103EF000ED0584E090E00E94B531612F81E290E011
:103F00000E94B5310E94DE1944CF882309F49ECF68
:103F10009091D605892F877F93FF88608093D6057F
:103F200083FF05C040E060E080E00E94F10A40911C
:103F3000D6055091D7056091D8057091D9058FE0CD
:103F400090E00E94C73182CF9FEF90931A01806169
:103F50008093D60512CF0C32FDE51F0791F00D328C
:103F60002DE5120709F072CF882309F412CF81E002
:103F70000E94B8164FEF6FEF8BE190E00E94691638
:103F800008CF882309F405CF81E00E94B81601CF3D
:103F900017FF9AC0882309F46DCFE091EE05F091E8
:103FA000EF0580E0309721F00190F081E02D099538
:103FB0008695817080934E059091D205913029F4B9
:103FC000882319F089E30E94BB1D8091C505809369
:103FD0004D051092C5058091D205813009F44AC083
:103FE000882309F443C0823009F44DC0843009F4B9
:103FF00051C08FE39CE90197F1F700C00000480130
:10400000E89497F8FCE0AF2EB12CC4010A2C02C052
:10401000969587950A94E2F78F70E7E2EE2EF12CE1
:10402000882339F0E82EF12C8A30C8F59DE1E90E9D
:10403000F11CC7010E94321EC7010E94311DF4E02D
:10404000AF1AB1082CEFA2162FEFB206F1F680914D
:10405000D205813061F1882331F1823021F1843041
:1040600089F180914D058093C50504CF82EE0E94B1
:10407000461DBFCF88E193E00E94321E88E193E0A5
:104080000E94311DB6CF82EE0E94461D87E50E9438
:10409000BB1DAFCF86EE0E94BB1D88E1F8CFE6E0E6
:1040A000EE1AF108C6CF82EE0E94F81CDACF8CE23D
:1040B0000E94BB1D80914E05882399F289E30E94DE
:1040C000BB1DCFCF88E2FBCF043F3CE5130739F19E
:1040D00088F4093D9CE51907F1F00A3DECE51E075F
:1040E00051F1083DFCE51F0709F0C4CE26E241EE80
:1040F00061EE0DC0063F2CE51207C9F0A0F027E2E3
:1041000045EE66EE073F8CE5180709F0B3CEC60111
:104110000E94CE1D3ECE27E245EE65EEF8CF26E2A8
:1041200041EE60EEF4CF27E245EE64EEF0CF26E2FA
:1041300041EE62EEECCF28E241E0EFCF8091EC055A
:10414000806106309CE5190709F447C08091EC05B1
:10415000886007301C4508F440C08091EC058062FF
:104160003CC00B30FCE51F0709F49BC068F4093024
:104170003CE5130709F48BC00A301C4509F0B5CEA5
:104180008091EC058C6029C08091EC058B7F0D300F
:104190009CE5190711F18091EC058D7F0E301C45CF
:1041A000E0F08091EC05877F18C00B3FFCE51F070E
:1041B00009F461C060F502313CE5130709F481C0E0
:1041C00078F400319CE5190709F477C08091EC057B
:1041D0008F7B01311C4509F088CE8093EC0585CE9C
:1041E0000431FCE51F0709F47AC008F470C00531FA
:1041F0001C4509F07ACE8091EC0582FB992790F955
:1042000021E0922790FB82F990FB83F9E6CF0E3FE5
:104210008CE5180709F449C070F40C3FECE51E0763
:1042200071F18091ED058E7F0D3F1C4509F05DCE4B
:104230008093ED055ACE01152DE5120709F44BC008
:1042400060F101301D4509F050CE8091ED05982FA9
:10425000909591708E7F892B90FB81F9E9CF8091A9
:10426000EC058160BACF8091EC058260B6CF809179
:10427000EC058460B2CF8091ED058160D9CF80914B
:10428000ED058260D5CF8091EC058064A6CF0E94B9
:10429000DE198091EC058068A0CF8091ED058360E8
:1042A000C7CF8091EC058E7F98CF8091ED058D7FF3
:1042B000BFCF8091EC058F7E90CF8091EC058F7DF4
:1042C0008CCF0E94DE198091EC058F7786CF80918C
:1042D000EC05837F82CF8091ED058C7FA9CF0E9472
:1042E000DE199091EC05892F97FB87F9805875CFDF
:1042F000992309F45CC08091C5058272F801E35CE2
:10430000FC45E431F10508F049C0E750FC4C0C9441
:10431000F42F8091510691E08927809351061092E5
:104320001C010E94611635CD4EEC56E167ED76E139
:104330000E949A0A2ECD47ED56E16EEC76E1F8CF59
:1043400046EA56E16FEA76E1F3CF4FEA56E166EAD4
:1043500076E1EECF4EE856E16AE976E1E9CF4AE947
:1043600056E16EE876E1E4CF46E756E162E876E1B1
:10437000DFCF42E856E166E776E1DACF4BEE56E171
:1043800061EE76E1D5CF41EE56E16BEE76E1D0CF2E
:1043900085E0FBCD8DE0F9CD82E1F7CD0115ECE5AF
:1043A0001E0709F44EC00F3D1C4509F487C0F601F5
:1043B00000811181992309F484C0C8010E94611110
:1043C000F82E682FC8010E94000AB8018F2D0E94A4
:1043D000BE0F082FF92EB82EF601E580E2947FE09B
:1043E000E722128111111092C4058091C2058770D5
:1043F000C1F01123B1F08F2D807F803449F090E21D
:10440000900F983070F0803619F4F6EFBF1649F02F
:1044100082E00E949B198091C2058770AA24A39410
:104420008111A12C9F2C92945FE095226BE0462E87
:10443000491408F481C0E92DF0E0E35FFB4C0C94D3
:10444000F42F0E94DE192FEF34E38CE0215030402E
:104450008040E1F700C00000F89481E08093E00024
:1044600080E28093D8001092C900EFE1FEE431971A
:10447000F1F700C000001DBA109268001CBC10BE0D
:104480001FBA10927A0010926E0010926F00109274
:104490007100109272001092C9001092BC0014B802
:1044A00017B81AB81DB810BA1092BC0015B818B8D1
:1044B0001BB81EB811BA0C94003F6BCC0E940514B7
:1044C00068CCC8010E94D709F82E7FCF2F2D2F70FE
:1044D000E22E8F2D807F19F0E29440EFE422112329
:1044E000C9F0EE2069F080E2800F883010F0B11042
:1044F0000BC08091C505E82AE092C5050E9492098B
:10450000802F0E94461D18C08091C405E82AE092C1
:10451000C405F4CF802F0E94F81CEE2069F0E094CF
:10452000005E083010F0B11057C08091C505E82238
:10453000E092C5050E949209292D2850330B2430A2
:10454000310510F40E948E0A112379F08F2D807F9F
:10455000803619F436EFB31641F080915005823061
:1045600009F097C283E080935005AA20A9F08091BA
:10457000C20580FD11C0F60112828595859585954D
:104580000E94B319C6010E94471E8091C2058595FD
:10459000859585950E94781985E0F601DE011196D2
:1045A00001900D928A95E1F789819A810E94D7093D
:1045B0009A81E981F0E026E0929FE00DF11D11243F
:1045C00034E5839FE00DF11D1124EE0FFF1FEA5625
:1045D000F94F859194917DCB8091C405E822E092BA
:1045E000C405A8CF3F2D3F70832E8F2D807F803252
:1045F00019F0829430EF8322BB2041F081E0B8169D
:1046000031F1112381F1EE2049F17ACF112391F09C
:104610009091C605882D892BE11003C00E94580A8D
:104620008BCFE1E0EE12FACF981709F485CF809393
:10463000C60582CFE11006C00E948C09882D0E9419
:104640004D0A7ACFF1E0EF1609F476CFF5CF1123BA
:1046500039F0442443944E1408F46ECF882DDECFF5
:10466000E1106ACFEBCFEE2049F329E3522EB510CB
:1046700009C02FEF37EE83E0215030408040E1F752
:1046800000C00000802F0E94F81C56CF8F2D869509
:104690008695837069F0813009F04ECF802F9F2D71
:1046A0009370111102C090E080E00E94620A44CF32
:1046B000802F9F2D9370111102C090E080E00E9426
:1046C000780A3ACF802F112329F00E9469080E94AE
:1046D0002B1932CF0E94A207FACF8F2D837009F0D9
:1046E00067C0111129CF202F229526952770220F00
:1046F000220F402F4F7050E070E060E0022E04C0A7
:10470000440F551F661F771F0A94D2F780E090E090
:10471000DC0104FF0FC08FE090E0A0E0B0E004C037
:10472000880F991FAA1FBB1F2A95D2F780959095D5
:10473000A095B0952F2D269526952370223029F12E
:10474000D8F44090C7055090C8056090C905709096
:10475000CA05213069F0842B952BA62BB72BBC0101
:10476000CD0164217521862197210E94D419E4CEC0
:1047700044295529662977292A013B01482A592AC3
:104780006A2A7B2AC301B201F0CF842B952BA62B7A
:10479000B72B4090C7055090C8056090C905709030
:1047A000CA05BC01CD016425752586259725DDCF79
:1047B0008695112311F08F2D8170882309F4BCCECA
:1047C000202F229526952770220F220F402F4F7001
:1047D00050E070E060E0022E04C0440F551F661FD9
:1047E000771F0A94D2F780E090E0DC0104FF0FC04D
:1047F0008FE090E0A0E0B0E004C0880F991FAA1FEE
:10480000BB1F2A95D2F780959095A095B0952F2D36
:10481000269526952370223029F1D8F44090E8059A
:104820005090E9056090EA057090EB05213069F041
:10483000842B952BA62BB72BBC01CD0164217521B0
:10484000862197210E946C1977CE44295529662923
:1048500077292A013B01482A592A6A2A7B2AC3015F
:10486000B201F0CF842B952BA62BB72B4090E805F7
:104870005090E9056090EA057090EB05BC01CD0110
:104880006425752586259725DDCF2F2D2F70E22EE7
:10489000112329F0822F0E94B319802FBFCE802FC1
:1048A0000E944D0A8E2D0E94781946CE802F32EF3D
:1048B000B31609F452C03B1578F090EFB91629F100
:1048C000E1EFBE1609F441C0112309F46AC0E110FA
:1048D00017CE8F2D8F713EC0F3EFBF1609F442C083
:1048E00094EF492EB410F0CF112309F44FC00F2DCF
:1048F0000F71802F0E94B31928E0029FC00111247C
:1049000083608093C205802F25C01123C1F0E11080
:1049100013CE2F2D2F7161E070E080E090E004C095
:10492000660F771F881F991F2A95D2F74090E805D8
:104930005090E9056090EA057090EB05A1CF5524F1
:1049400053945E1408F4F8CDE4CF8F2D8F711123AA
:1049500009F4A9CF0E94B319EFCD8F2D8F711123C8
:10496000C9F3A1CF60E070E0CB01112309F46ACF55
:104970002F2D2F7161E070E080E090E004C0660FA1
:10498000771F881F991F2A95D2F75CCF81E00E947C
:104990009B1931E03E1508F0CFCD82E00E949B19B3
:1049A000CBCDEE2059F0893309F06CCE8FEF97EE26
:1049B000E3E081509040E040E1F762CE8F2D8F71AF
:1049C00072CFE0E1E00FE73008F03EC0F0E0E75ED4
:1049D000FB4C0C94F42F112309F4AECD80915205B9
:1049E00091E0892780935205A7CD10935205A4CD5D
:1049F00081E08127F7CF11119FCD81E0F3CF111115
:104A00009BCD1092520598CD112321F082E0809326
:104A10005005F3CF80915005823021F481E08093DE
:104A200050058ACD833009F087CD10925005E9CF2B
:104A3000112339F080915105882381F2109251059C
:104A40007BCDEE2059F278CD80915105EE20A9F072
:104A5000882341F08091520591E089278093520587
:104A600010925105802F11114CCD0E94F81C86E048
:104A7000F60111928A95E9F75FCD882309F45CCDA0
:104A800011115ACD8091520591E0892780935205EA
:104A9000D5CF813009F069CD1092500510925205A2
:104AA00064CD85E0DE01119601900D928A95E1F7C3
:104AB000F601228189819A81211121C90E94D70999
:104AC000082F25C906311C4509F071CC80914F058E
:104AD00069E2811165E384EB93E00E94E00814C071
:104AE00006312CE5120709F003CC8091C5058A7ABE
:104AF00091E009F490E090934F0569E2811165E33C
:104B000084EB93E00E940A090E94920942C91F9314
:104B1000CF93DF9380915805807FA9F4809155054C
:104B2000882389F080918A05D091590560915305B9
:104B300070915405A0915605B0915705C62FC72313
:104B400016E0D81304C0DF91CF911F91089590E033
:104B5000109711F0CF3F19F401968770F2CF189F8C
:104B60009001199F300D1124F901E65AFA4F418145
:104B70004713F2CF40814613EFCF42814111ECCF72
:104B8000438154814A1B5B0B483C510528F78091B7
:104B900058058F70806180935805F901E15AFA4FEA
:104BA00080818F708061808383E595E00E94471E3D
:104BB000DF91CF911F910C942E0AAF92BF92CF92AA
:104BC000DF92EF92FF920F931F93CF93DF93CDB7B6
:104BD000DEB761970FB6F894DEBF0FBECDBF8C0174
:104BE00085E0F801DE011D9601900D928A95E1F7AE
:104BF000F80180819181E28023E5A22E25E0B22E8A
:104C000060915605709157056115710509F43EC113
:104C10003091530540915405232F24232F3F09F44D
:104C200035C1C380D480F0905505F601E61BF70B23
:104C3000FF2009F4FBC020915805522F507FE83C1B
:104C4000F10508F0BBC0511178C0FE2C491321C0FA
:104C500038131FC0E1101DC02F702061209358052C
:104C6000C5010E94471E80915805F80185838F2D4C
:104C700061960FB6F894DEBF0FBECDBFDF91CF9126
:104C80001F910F91FF90EF90DF90CF90BF90AF906A
:104C90000895CD2829F0282F29232F3F09F022C17C
:104CA00020E0F22FF170DF2E20FF3DC020918A0519
:104CB0004091590556E0241315C08D879E878D8538
:104CC0009E850E94A311292F22952F702230F8F083
:104CD000243020F59F70F9F0F8019581907FD9F488
:104CE000D12C1FC030E0529FF001539FF00D1124D2
:104CF000E65AFA4F6181961306C06081861303C09D
:104D00006281E61210C02F5F3F4F2770D4CF9F7093
:104D100011F0882329F3805E883010F3C8010E94C7
:104D2000471EFD2CA4CFEE2009F4A1CF8091580599
:104D3000816080935805F12C9ACF491312C0381323
:104D400010C0E1100EC0F8012583C8010E94471E63
:104D500086E0F801A3E5B5E001900D928A95E1F7B0
:104D600086CF8D879E878D859E850E94AD11882375
:104D700009F1EE20F9F080915805803270F0209111
:104D800053053091540538872F831986DB86CA86F0
:104D90008C87CE0107960E94471E86E0F801A3E5A6
:104DA000B5E001900D928A95E1F70E948725FF24D6
:104DB000F3945DCFC8010E94471EF9CF51110AC07C
:104DC00083E595E00E94471E86E0F50111928A95E1
:104DD000E9F7B1CF49130FC038130DC0E1100BC074
:104DE000F8012583C8010E94471E86E0F501119253
:104DF0008A95E9F73CCF8D879E878D859E850E9499
:104E0000AD118823B9F2EE20A9F2809158058032C5
:104E100020F220915305309154053A8329831B8257
:104E2000DD82CC828E83CE010196B5CFE83CF105C0
:104E3000E0F6FE2CEE2009F4BDCF491316C038135E
:104E400014C08091580580FD83CF982F907F09F47E
:104E50007FCFF8018583903F09F477CF982F907F1B
:104E6000905F8F70892B858370CF8D879E878D850E
:104E70009E850E94AD11811190CF8091580581606F
:104E800080935805C8010E94471EF1CEEE2009F418
:104E900091CF8D879E878D859E850E94AD11F82EBE
:104EA000882309F487CF86E0F801A3E5B5E00190F7
:104EB0000D928A95E1F780915305909154050E94D7
:104EC000A31192959F70963051F4863F41F08091E6
:104ED000520591E0892780935205909351050E94D5
:104EE0008725C5CE21E02E25DCCE1F93CF93DF93FF
:104EF000CDB7DEB767970FB6F894DEBF0FBECDBF54
:104F00006D8B7E8B8F8B8E899F89892BE1F0852F0E
:104F100084238F3F09F098C05FEF4FEF14C03091AA
:104F20005205332309F44EC0E42FF0E036E0539FDE
:104F3000E00DF11D1124EE0FFF1FE851FE4F4081DF
:104F40005181822B8C931A8A198A4B8B5C8B85E05A
:104F5000FE017396DE011D9601900D928A95E1F790
:104F600086E0FE013D96DE01179601900D928A952E
:104F7000E1F7CE0107960E94DD25811112C086E07F
:104F8000FE013796DE01119601900D928A95E1F7A8
:104F90008A859B85892B29F08F81988589238F3F6E
:104FA000C9F516E080918A0590915905891320C0B2
:104FB00067960FB6F894DEBF0FBECDBFDF91CF91DD
:104FC0001F91089580958223BDCF96E0929FD001D6
:104FD000939FB00D1124A65ABA4FFE01319601904D
:104FE0000D929A95E1F7809359050E942E0AD9CF28
:104FF000819FC0011124865A9A4F0E94DD25882383
:10500000B9F280918A0590E0019687709927809384
:105010008A05C8CF2091590530E0C90101968770F3
:10502000992740918A054817190679F60E94DE19DA
:105030001092590510928A0586E0E3E5F5E0DF015C
:105040001D928A95E9F7ADCF81E090E0042E01C072
:10505000880F0A94EAF7A52FB0E0A15CBA4F2C9113
:105060003D8931115CCF322F38235BCF8F929F92D5
:10507000AF92BF92CF92DF92EF92FF920F931F9366
:10508000CF93DF9380910C0190910D01892BA1F0BA
:105090008091D5038F5F8093D50381110DC00E944D
:1050A000221790E090930D0180930C01892B21F43D
:1050B0000E947D130E940617EAED8E2EE5E09E2EDB
:1050C000740100E010E077E0C72EC10E812F0E942E
:1050D00099178C2D0E949917812F0E94ED17E701D7
:1050E00099917E01D12C891729F0FE013197808397
:1050F000DD24D3948C2D0E94ED17F701968189173A
:1051000009F47CC0868381E08D29082B0E94C5129A
:105110001F5F1730C1F60E941F196091D70370916D
:10512000D8039093D8038093D7032091D60330E01F
:10513000261B370B820F931F6BEF70E00E94CC2F62
:10514000E82E392F182F8093D603F090DA03FF2032
:1051500009F418C31092DA03E091D005F091D1055B
:10516000AF01425F5F4F20E06BEFB62E6BEF70E058
:10517000A191AB3FA1F0CA2ED12C8E2D932F1A17DF
:1051800008F43EC08C199D09092E000CAA0BBB0B1C
:10519000C297A105B105D0F1DF011197BC92E417C8
:1051A000F50731F72093DA03011102C02111ECC297
:1051B0001092D903A091D005B091D1059091DA0356
:1051C000E2EFF5E040E056E080E03191E401299122
:1051D0004E01321751F03C913B3FD1F41C93BF017B
:1051E00061507109EB01288391E011964E175F071A
:1051F00061F79093DA038093D903CAC280E084CF29
:10520000DB01AC19BD098A0F9B1FBECF2F2DC7CF65
:1052100081E0EBCF1092190140934D0650934E065A
:1052200060934F067093500681E080931C01DEC2AC
:1052300080910B01C1E018130BC02091510623701F
:1052400080910A0190E0C1E02817190609F4C0E036
:10525000C170C0931B01193140F4E12FF0E0E05E12
:10526000FB4C0C94F42FC11102C0C0E028C040E0F8
:1052700060E080E00E94F10AF8CF80911901C82F08
:10528000CC0FCC0FC80F45E0F42EFC0EEF2CD0E372
:10529000DF1510F430E3E32E60915206709153064F
:1052A000809154060E94620DD62EC72EB82ED0E0F3
:1052B000CE1508F43BC0C1E0FFE2FF15B0F28091CB
:1052C00019018F5F80931901C11115C282E080938B
:1052D0001C0180911B0181110EC2112309F432C2FD
:1052E0008091F105811182C28091D60583FD7EC235
:1052F0006091E8057091E9058091EA059091EB05D0
:105300000E943F09833009F40BC208F0F8C18130D4
:1053100009F4FEC1823009F400C280911A018111A2
:1053200065C240E060E00E94F10A60C2FE01EC57F5
:10533000FC4F808190911A01892331F02B2D4D2D46
:105340006C2DCE010E94F30A2196B2CF80911901F3
:10535000C82FCC0FCC0FC80F25E0F22EFC0EEF2C7F
:1053600020E32F1510F490E3E92EC0905306D0905F
:105370005406D09152066D2F7C2D8D2D0E94620D0A
:10538000B62EA72E982E609155066D0F7C2D8D2D73
:105390000E94620DD62EC72E882ED0E0CE1530F09A
:1053A000C1E08FE28F1508F08ACF5FCFFE01EC5786
:1053B000FC4F908180911A01892359F0282D4D2DA1
:1053C0006C2D90FD03C0292D4B2D6A2DCE010E941E
:1053D000F30A2196E3CF80911901C82FCC0FCC0F8F
:1053E000C80F85E0F82EFC0EDF2C90E39F1510F41B
:1053F000D0E3DD2EC0905306B090540620915506A0
:10540000B0E4EB2E3E2D329F312D1124E32ED0E05F
:10541000CD1530F0C1E09FE29F1508F050CF25CFA9
:10542000FE01EC57FC4F808190911A018923B9F05D
:10543000FE01EE0FFF1FEB5DFC4F808182958F70A8
:10544000609152068E9D600D11247C2D8B2D0E9443
:10545000620D462F282F672FCE010E94F30A219656
:10546000D7CF80911901C82FCC0FCC0FC80FE5E022
:10547000FE2EFC0EDF2CD0E3DF1510F470E3D72EE8
:10548000C0905306B09054062091550660E4E62E75
:105490003E2D329F312D1124E32ED0E0CD1508F0A2
:1054A000B9CFFE01EC57FC4F808190911A018923FE
:1054B000D9F0FE01EE0FFF1FEC5DFC4F6081E69E10
:1054C000B001112455E0759567955A95E1F78091E3
:1054D0005206680F7C2D8B2D0E94620D462F282FBF
:1054E000672FCE010E94F30A2196D8CF809119012F
:1054F000C82FCC0FCC0FC80F35E0F32EFC0EEF2CCD
:10550000D0E3DF1510F420E3E22ED0905206D091C4
:105510005306C0905406609155066695669566954B
:1055200080914D0690914E060E94580D0E94E10C0C
:10553000805887FD8195880F282F3C2D239F212D92
:105540001124822F6D2D7D2F0E94620DD62EC72E25
:10555000B82ED0E0CE1508F05DCFFE01EC57FC4F21
:10556000808190911A01892331F02B2D4D2D6C2DC6
:10557000CE010E94F30A2196EDCF8CEE9BE00E94B3
:10558000310FC82F9CCE82EC9BE0F9CF83EC9CE0DE
:105590000E94D50EF6CF84EA9CE0FACF89E89CE021
:1055A0000E94580EEECF8DE69CE0FACF80EC9BE097
:1055B000E6CF87EB9BE0E3CF8EEA9BE0E0CF85E987
:1055C0009BE0DDCF87E89BE0EBCF80E39DE0E0CF81
:1055D0008CE59CE0DDCF88E49CE0E2CF8AE59BE0AF
:1055E0000E94F60DCECF8CE29BE0FACF85EF9AE0D9
:1055F000F7CFC1111EC06091550620E1620F08F47B
:105600006FEF80914D0690914E060E94580D6AE012
:1056100070E00E94CC2F892B09F027CE0E944630E3
:1056200060E370E00E94E02F60911A010E941B1657
:1056300046CE80911901C82FCC0FCC0FC80F95E032
:10564000D92EDC0E8D2DD0E3DD1508F480E3D0E0FB
:10565000E82EF12CCE15DF0534F0C1E0EFE2ED15B8
:1056600008F02DCE02CE60911A01CE010E941B16C9
:105670002196F0CFC1111EC06091550620E1620F46
:1056800008F46FEF80914D0690914E060E94580DE0
:1056900065E070E00E94CC2F892B09F0E6CD0E94D6
:1056A000463060E370E00E94E02F60911A010E9492
:1056B000F91505CE80911901C82FCC0FCC0FC80F5A
:1056C00085E0D82EDC0E8D2DF0E3FD1508F480E387
:1056D000D0E0E82EF12CCE15DF0534F0C1E02FE24A
:1056E0002D1508F0ECCDC1CD60911A01CE010E94BC
:1056F000F9152196F0CF112309F478C0F1CD85304A
:10570000A9F088F0863009F008CE86E090E002C06B
:1057100081E090E00E94081269C082E090E0FACF38
:1057200083E090E0F7CF84E090E0F4CF85E090E074
:10573000F1CF10930B0180915106837080930A0181
:105740000E94A51483E071CD40914D0650914E0604
:1057500060914F06709150062FB7F8948091CB0559
:105760009091CC05A091CD05B091CE052FBF841BA3
:10577000950BA60BB70B4A97A105B105B8F110928E
:105780001C0134C0011114CD8091D903811110CDB9
:105790008FB7F8944091CB055091CC056091CD0521
:1057A0007091CE058FBF4093DB035093DC03609371
:1057B000DD037093DE038091F10510E0811108C0D4
:1057C00080915106182F137019F0182F1695169501
:1057D00080911C01813009F42BCD882309F41ACD66
:1057E000823009F4A6CF833009F4AECF802FDF9149
:1057F000CF911F910F91FF90EF90DF90CF90BF90CE
:10580000AF909F908F900895CDB7DEB72F970FB6CA
:10581000F894DEBF0FBECDBF84B7877F84BF0FB6BD
:10582000F894A89580916000886180936000109240
:1058300060000FBE80E890E00FB6F894809361009E
:10584000909361000FBE85B7806885BF85B780687B
:1058500085BF0E9415060E94E0068091E2008460E8
:105860008093E2007894809140068823A1F0109103
:10587000E9001F709091EC00892F817090FD80E805
:10588000182B1092E9008091E80083FD0E94F31923
:105890001F701093E90082E084BD93E095BD9AEFFC
:1058A00097BD80936E000E94221790E090930D01A7
:1058B00080930C010E94C5120E94D412EAEDF5E01B
:1058C00088EE95E0A2EFB5E011921D928E179F072A
:1058D000D9F78EE090E00E9456308093D0059093E7
:1058E000D105FC010E962BEF21938E179F07E1F750
:1058F00090E080E00E949F318F3E9E4F11F00E9409
:1059000005140E9406178CE090E00E94913190E00F
:10591000B0E0A0E08093D2059093D305A093D40586
:10592000B093D50589EA8093800089E08093810057
:1059300024982C983F988AB18F7C8AB96E98479AA0
:105940008BB180638BB9769A8FE090E00E94993199
:105950006093D6057093D7058093D8059093D905A9
:1059600067708FEF869FB0011124759567957595C7
:1059700067957727709389006093880070938B00F8
:1059800060938A0070938D0060938C009091D6058F
:1059900094FF5DC180931A010E947D1390E080E026
:1059A0000E949F318F3E9E4F11F00E94051482E0AD
:1059B00090E00E94913180930C060E94F71390931F
:1059C000ED058093EC0583E090E00E949131682F13
:1059D00070E090E080E00E94D4196091E805709139
:1059E000E9058091EA059091EB050E9491120E94D1
:1059F000E40A0E94E40A0E9461168EE091E090930E
:105A0000EF058093EE0598E1E92EF12C20E0C22EFF
:105A100026E0D22E82EF95E03EE0A32EA80EBB2416
:105A2000B39480914006853079F480E4982E00E1AB
:105A300012E180914006853009F40CC10E94DE1904
:105A40000E948E0A1092F1050E943628EDE0F6E0E1
:105A5000A2EFB5E010E000E0302F8D9121912817E2
:105A600009F449C190E0992493942827422F4921B1
:105A700009F43CC19E833F83892191E009F490E0C1
:105A800098870E941F198160782F9A8789874E8195
:105A90005F8168858A850E947527F801E35FF94F69
:105AA00080819826908285E0E6E0F6E0DE0111969E
:105AB00001900D928A95E1F7909007068090080674
:105AC0001091090600910A06109207061092080626
:105AD0001092090610920A06892D882909F448C0F7
